:020000040000FA
:100000000C945D000C9485000C9485000C94850084
:100010000C9485000C9485000C9485000C9485004C
:100020000C9485000C9485000C9485000C9485003C
:100030000C9485000C9485000C9485000C9485002C
:100040000C947C020C9485000C944A020C942402BB
:100050000C9485000C9485000C9485000C9485000C
:100060000C9485000C94850000000008000201003B
:100070000003040700000000000000000000000072
:10008000250028002B0000000000240027002A0083
:10009000040404040404040402020202020203032E
:1000A0000303030301020408102040800102040836
:1000B0001020010204081020E80311241FBECFEF16
:1000C000D8E0DEBFCDBF11E0A0E0B1E0E6E7FBE0A5
:1000D00002C005900D92A632B107D9F721E0A6E241
:1000E000B1E001C01D92A13DB207E1F710E0CDE5FE
:1000F000D0E004C02197FE010E94B305CC35D107A2
:10010000C9F70E94C6020C94B9050C94000090E057
:10011000FC01EC55FF4F249180579F4FFC018491C7
:10012000882399F090E0880F991FFC01EA57FF4F50
:10013000A591B491FC01E458FF4F859194918FB73C
:10014000F894EC91E22BEC938FBF0895AF92BF929D
:10015000CF92DF92EF92FF920F931F93CF93DF9393
:100160006C017B018B01040F151FEB015E01AE18C2
:10017000BF08C017D10759F06991D601ED91FC91E4
:100180000190F081E02DC6010995892B79F7C50111
:10019000DF91CF911F910F91FF90EF90DF90CF9063
:1001A000BF90AF900895FC01538D448D252F30E012
:1001B000842F90E0821B930B541710F0CF96089574
:1001C00001970895FC01918D828D981761F0A28DA1
:1001D000AE0FBF2FB11D5D968C91928D9F5F9F7367
:1001E000928F90E008958FEF9FEF0895FC01918D1D
:1001F000828D981731F0828DE80FF11D858D90E08A
:1002000008958FEF9FEF0895FC01918D228D892F26
:1002100090E0805C9F4F821B91098F73992708950E
:100220008FE291E00E94040121E0892B09F420E093
:10023000822F089580E090E0892B29F00E94100120
:1002400081110C9400000895FC01A48DA80FB92F12
:10025000B11DA35ABF4F2C91848D90E001968F73EE
:100260009927848FA689B7892C93A089B1898C910D
:10027000837080648C93938D848D981306C002885C
:10028000F389E02D80818F7D80830895EF92FF9226
:100290000F931F93CF93DF93EC0181E0888F9B8DA9
:1002A0008C8D98131AC0E889F989808185FF15C063
:1002B0009FB7F894EE89FF896083E889F989808186
:1002C0008370806480839FBF81E090E0DF91CF9155
:1002D0001F910F91FF90EF900895F62E0B8D10E077
:1002E0000F5F1F4F0F731127E02E8C8D8E110CC0E6
:1002F0000FB607FCFACFE889F989808185FFF5CF31
:10030000CE010E942401F1CFEB8DEC0FFD2FF11DEA
:10031000E35AFF4FF0829FB7F8940B8FEA89FB896D
:1003200080818062CFCFCF93DF93EC01888D8823CB
:10033000B9F0AA89BB89E889F9898C9185FD03C048
:10034000808186FD0DC00FB607FCF7CF8C9185FF2D
:10035000F2CF808185FFEDCFCE010E942401E9CF4D
:10036000DF91CF91089590E0FC01E859FF4F24916F
:10037000FC01EC55FF4F3491FC01E057FF4FE49135
:10038000EE23C9F0222339F0233001F1A8F4213003
:1003900019F1223029F1F0E0EE0FFF1FE458FF4F72
:1003A000A591B4918FB7F894EC91611126C0309566
:1003B0003E233C938FBF08952730A9F02830C9F021
:1003C000243049F7809180008F7D03C080918000A8
:1003D0008F7780938000DFCF84B58F7784BDDBCFAC
:1003E00084B58F7DFBCF8091B0008F778093B00074
:1003F000D2CF8091B0008F7DF9CF3E2BDACF3FB7BF
:10040000F89480912B0190912C01A0912D01B09135
:100410002E0126B5A89B05C02F3F19F00196A11DFE
:10042000B11D3FBFBA2FA92F982F8827BC01CD013E
:10043000620F711D811D911D42E0660F771F881F9D
:10044000991F4A95D1F708951F920F920FB60F92F8
:1004500011242F933F934F935F936F937F938F93C9
:100460009F93AF93BF93EF93FF938FE291E00E942E
:100470002401FF91EF91BF91AF919F918F917F9157
:100480006F915F914F913F912F910F900FBE0F9001
:100490001F9018951F920F920FB60F9211242F9351
:1004A0008F939F93EF93FF93E0913F01F091400171
:1004B0008081E0914501F091460182FD1BC0908151
:1004C000809148018F5F8F7320914901821741F01D
:1004D000E0914801F0E0E15DFE4F958F8093480187
:1004E000FF91EF919F918F912F910F900FBE0F90E1
:1004F0001F9018958081F4CF1F920F920FB60F9224
:1005000011242F933F938F939F93AF93BF93809129
:10051000270190912801A0912901B0912A013091E1
:10052000260123E0230F2D3758F50196A11DB11D9B
:10053000209326018093270190932801A0932901FD
:10054000B0932A0180912B0190912C01A0912D0153
:10055000B0912E010196A11DB11D80932B019093A6
:100560002C01A0932D01B0932E01BF91AF919F91CB
:100570008F913F912F910F900FBE0F901F90189564
:1005800026E8230F0296A11DB11DD2CF789484B521
:10059000826084BD84B5816084BD85B5826085BD7F
:1005A00085B5816085BD80916E00816080936E000D
:1005B00010928100809181008260809381008091FF
:1005C00081008160809381008091800081608093B0
:1005D00080008091B10084608093B1008091B00070
:1005E00081608093B00080917A00846080937A006B
:1005F00080917A00826080937A0080917A00816095
:1006000080937A0080917A00806880937A001092BB
:10061000C100E0913F01F091400182E08083E091D0
:100620003B01F0913C011082E0913D01F0913E01CF
:100630008FEC808310924701E0914301F0914401D7
:1006400086E08083E0914101F091420180818061E8
:100650008083E0914101F091420180818860808334
:10066000E0914101F0914201808180688083E091B6
:100670004101F091420180818F7D808383E00E945F
:10068000870082E00E9487004FE050E063E171E064
:100690008FE291E00E94A60042E050E063E271E048
:1006A0008FE291E00E94A60011E0C0E0D0E08FE26E
:1006B00091E00E94040120E0181619060CF053C0C6
:1006C0000E94FF014B015C018FE291E00E94E20079
:1006D000082F682F6F7070E090E080E00E94BA04ED
:1006E00020E030E44EEC54EC0E94460520E030ED72
:1006F00044E856E40E9416040E9482042B017B0108
:1007000061E007FF60E082E00E94B30184EA481ADA
:1007100081E0580A8DED48168CE3580610F0F12C54
:10072000E12CC701FF0CAA0BBB0B8093CD0190936A
:10073000CE01A093CF01B093D001C0900001D12C85
:10074000F12CE12C0E94FF01C818D908EA08FB0827
:10075000C60ED71EE81EF91EF694E794D794C794E8
:10076000C092000121E08091CD019091CE01A09135
:10077000CF01B091D00182309105A105B105D8F02B
:10078000222321F120910001821B9109A109B109C5
:100790008230910538F0880F991F880F991F0597AF
:1007A0000197F1F7F090CC016F2D83E00E94B30127
:1007B000F126F092CC01209709F479CF0E94100124
:1007C000882309F474CF0E94000071CF20E0DCCFB1
:1007D000EFE2F1E01382128288EE93E0A0E0B0E055
:1007E00084839583A683B78385E091E0918380839A
:1007F00085EC90E09587848784EC90E097878687E6
:1008000080EC90E0918B808B81EC90E0938B828BDD
:1008100082EC90E0958B848B86EC90E0978B868BB6
:10082000118E128E138E148E08955058BB27AA274E
:100830000E942D040C940C050E94FE0438F00E94C6
:10084000050520F039F49F3F19F426F40C94FB04BD
:100850000EF4E095E7FB0C94F504E92F0E941D05CA
:1008600058F3BA17620773078407950720F079F4E5
:10087000A6F50C943F050EF4E0950B2EBA2FA02D93
:100880000B01B90190010C01CA01A0011124FF273D
:10089000591B99F0593F50F4503E68F11A16F04038
:1008A000A22F232F342F4427585FF3CF4695379537
:1008B0002795A795F0405395C9F77EF41F16BA0BFC
:1008C000620B730B840BBAF09150A1F0FF0FBB1FAA
:1008D000661F771F881FC2F70EC0BA0F621F731FF3
:1008E000841F48F4879577956795B795F7959E3F50
:1008F00008F0B0CF9395880F08F09927EE0F9795E1
:10090000879508950E9489046894B1110C9440055C
:1009100008950E94250588F09F5798F0B92F9927D0
:10092000B751B0F0E1F0660F771F881F991F1AF0DA
:10093000BA95C9F714C0B13091F00E943F05B1E0FB
:1009400008950C943F05672F782F8827B85F39F0FA
:10095000B93FCCF3869577956795B395D9F73EF473
:1009600090958095709561957F4F8F4F9F4F08951B
:10097000E89409C097FB3EF4909580957095619539
:100980007F4F8F4F9F4F9923A9F0F92F96E9BB27EF
:100990009395F695879577956795B795F111F8CF6B
:1009A000FAF4BB0F11F460FF1BC06F5F7F4F8F4FD6
:1009B0009F4F16C0882311F096E911C0772321F0CC
:1009C0009EE8872F762F05C0662371F096E8862F64
:1009D00070E060E02AF09A95660F771F881FDAF7BB
:1009E000880F9695879597F9089597F99F6780E8FE
:1009F00070E060E008959FEF80EC089500240A9471
:100A00001616170618060906089500240A941216E9
:100A10001306140605060895092E0394000C11F41C
:100A2000882352F0BB0F40F4BF2B11F460FF04C0C9
:100A30006F5F7F4F8F4F9F4F089557FD9058440F22
:100A4000551F59F05F3F71F04795880F97FB991F2D
:100A500061F09F3F79F087950895121613061406EA
:100A6000551FF2CF4695F1DF08C016161706180677
:100A7000991FF1CF86957105610508940895E89452
:100A8000BB2766277727CB0197F908950E94590560
:100A90000C940C050E94FE0438F00E94050520F01D
:100AA000952311F00C94F5040C94FB0411240C9480
:100AB00040050E941D0570F3959FC1F3950F50E00E
:100AC000551F629FF001729FBB27F00DB11D639F00
:100AD000AA27F00DB11DAA1F649F6627B00DA11DA6
:100AE000661F829F2227B00DA11D621F739FB00D4C
:100AF000A11D621F839FA00D611D221F749F3327BC
:100B0000A00D611D231F849F600D211D822F762F54
:100B10006A2F11249F5750409AF0F1F088234AF031
:100B2000EE0FFF1FBB1F661F771F881F915050409D
:100B3000A9F79E3F510580F00C94F5040C944005F4
:100B40005F3FE4F3983ED4F3869577956795B79524
:100B5000F795E7959F5FC1F7FE2B880F911D96953E
:100B6000879597F90895EE0FFF1F0590F491E02DFA
:100B70000994F894FFCF45000000004601A600D379
:100B80000093010401E200F60053656E6420436F98
:0C0B90006D6D616E64732021000D0A0081
:107E0000112484B714BE81FFF0D085E080938100F7
:107E100082E08093C00088E18093C10086E0809377
:107E2000C20080E18093C4008EE0C9D0259A86E02C
:107E300020E33CEF91E0309385002093840096BBD3
:107E4000B09BFECF1D9AA8958150A9F7CC24DD24C4
:107E500088248394B5E0AB2EA1E19A2EF3E0BF2EE7
:107E6000A2D0813461F49FD0082FAFD0023811F036
:107E7000013811F484E001C083E08DD089C08234E0
:107E800011F484E103C0853419F485E0A6D080C0E4
:107E9000853579F488D0E82EFF2485D0082F10E0AE
:107EA000102F00270E291F29000F111F8ED06801E7
:107EB0006FC0863521F484E090D080E0DECF843638
:107EC00009F040C070D06FD0082F6DD080E0C81688
:107ED00080E7D80618F4F601B7BEE895C0E0D1E017
:107EE00062D089930C17E1F7F0E0CF16F0E7DF06D8
:107EF00018F0F601B7BEE89568D007B600FCFDCFD4
:107F0000A601A0E0B1E02C9130E011968C91119780
:107F100090E0982F8827822B932B1296FA010C0160
:107F200087BEE89511244E5F5F4FF1E0A038BF0790
:107F300051F7F601A7BEE89507B600FCFDCF97BE46
:107F4000E89526C08437B1F42ED02DD0F82E2BD052
:107F50003CD0F601EF2C8F010F5F1F4F84911BD097
:107F6000EA94F801C1F70894C11CD11CFA94CF0C13
:107F7000D11C0EC0853739F428D08EE10CD085E9AC
:107F80000AD08FE07ACF813511F488E018D01DD067
:107F900080E101D065CF982F8091C00085FFFCCF94
:107FA0009093C60008958091C00087FFFCCF809118
:107FB000C00084FD01C0A8958091C6000895E0E648
:107FC000F0E098E1908380830895EDDF803219F02E
:107FD00088E0F5DFFFCF84E1DECF1F93182FE3DFCA
:107FE0001150E9F7F2DF1F91089580E0E8DFEE27F6
:047FF000FF270994CA
:027FFE00040479
:00000001FF
