:020000040000FA
:100000000C945D000C9485000C9485000C94850084
:100010000C9485000C9485000C9485000C9485004C
:100020000C9485000C9485000C9485000C9485003C
:100030000C9485000C9485000C9485000C9485002C
:100040000C94EB030C9485000C94B9030C9493036B
:100050000C9485000C9485000C9485000C9485000C
:100060000C9485000C94850000000008000201003B
:100070000003040700000000000000000000000072
:10008000250028002B0000000000240027002A0083
:10009000040404040404040402020202020203032E
:1000A0000303030301020408102040800102040836
:1000B0001020010204081020F50511241FBECFEF07
:1000C000D8E0DEBFCDBF12E0A0E0B1E0EEE1F1E1AB
:1000D00002C005900D92AA30B107D9F722E0AAE03C
:1000E000B2E001C01D92A53BB207E1F710E0CDE5FB
:1000F000D0E004C02197FE010E948708CC35D107CB
:10010000C9F70E9435040C948D080C94000090E00F
:10011000FC01EC55FF4F249180579F4FFC018491C7
:10012000882399F090E0880F991FFC01EA57FF4F50
:10013000A591B491FC01E458FF4F859194918FB73C
:10014000F894EC91E22BEC938FBF0895AF92BF929D
:10015000CF92DF92EF92FF920F931F93CF93DF9393
:100160006C017B018B01040F151FEB015E01AE18C2
:10017000BF08C017D10759F06991D601ED91FC91E4
:100180000190F081E02DC6010995892B79F7C50111
:10019000DF91CF911F910F91FF90EF90DF90CF9063
:1001A000BF90AF900895FC01538D448D252F30E012
:1001B000842F90E0821B930B541710F0CF96089574
:1001C00001970895FC01918D828D981761F0A28DA1
:1001D000AE0FBF2FB11D5D968C91928D9F5F9F7367
:1001E000928F90E008958FEF9FEF0895FC01918D1D
:1001F000828D981731F0828DE80FF11D858D90E08A
:1002000008958FEF9FEF0895FC01918D228D892F26
:1002100090E0805C9F4F821B91098F73992708950E
:1002200088E192E00E94040121E0892B09F420E09A
:10023000822F089580E090E0892B29F00E94100120
:1002400081110C9400000895FC01A48DA80FB92F12
:10025000B11DA35ABF4F2C91848D90E001968F73EE
:100260009927848FA689B7892C93A089B1898C910D
:10027000837080648C93938D848D981306C002885C
:10028000F389E02D80818F7D80830895EF92FF9226
:100290000F931F93CF93DF93EC0181E0888F9B8DA9
:1002A0008C8D98131AC0E889F989808185FF15C063
:1002B0009FB7F894EE89FF896083E889F989808186
:1002C0008370806480839FBF81E090E0DF91CF9155
:1002D0001F910F91FF90EF900895F62E0B8D10E077
:1002E0000F5F1F4F0F731127E02E8C8D8E110CC0E6
:1002F0000FB607FCFACFE889F989808185FFF5CF31
:10030000CE010E942401F1CFEB8DEC0FFD2FF11DEA
:10031000E35AFF4FF0829FB7F8940B8FEA89FB896D
:1003200080818062CFCFCF93DF93EC01888D8823CB
:10033000B9F0AA89BB89E889F9898C9185FD03C048
:10034000808186FD0DC00FB607FCF7CF8C9185FF2D
:10035000F2CF808185FFEDCFCE010E942401E9CF4D
:10036000DF91CF91089590E0FC01E859FF4F24916F
:10037000FC01EC55FF4F3491FC01E057FF4FE49135
:10038000EE23C9F0222339F0233001F1A8F4213003
:1003900019F1223029F1F0E0EE0FFF1FE458FF4F72
:1003A000A591B4918FB7F894EC91611126C0309566
:1003B0003E233C938FBF08952730A9F02830C9F021
:1003C000243049F7809180008F7D03C080918000A8
:1003D0008F7780938000DFCF84B58F7784BDDBCFAC
:1003E00084B58F7DFBCF8091B0008F778093B00074
:1003F000D2CF8091B0008F7DF9CF3E2BDACF3FB7BF
:10040000F89480910F0290911002A0911102B09186
:10041000120226B5A89B05C02F3F19F00196A11D19
:10042000B11D3FBFBA2FA92F982F8827BC01CD013E
:10043000620F711D811D911D42E0660F771F881F9D
:10044000991F4A95D1F70895FC0101900020E9F722
:100450003197AF01481B590BBC0188E192E00C9425
:10046000A6008F929F92AF92BF920F931F93CF934C
:10047000DF93CDB7DEB7A1970FB6F894DEBF0FBEFE
:10048000CDBF19A2423008F44AE08E010F5D1F4F24
:10049000842E912CB12CA12CA50194010E946508F9
:1004A000E62FB901CA01EA30F4F4E05DD801EE9319
:1004B0008D01232B242B252B79F790E080E01097DA
:1004C00019F0CD010E942402A1960FB6F894DEBF68
:1004D0000FBECDBFDF91CF911F910F91BF90AF9015
:1004E0009F908F900895E95CE1CF0C942402CF9304
:1004F000DF930E942402EC0183E191E00E94240238
:100500008C0F9D1FDF91CF910895CF92DF92EF92D4
:10051000FF92CF93DF936C01990FEE08FF08F7FE6F
:100520001FC06DE288E192E00E944601EC0166275F
:100530007727CB016C197D098E099F094AE00E943B
:100540003102C80FD91F83E191E00E9424028C0F71
:100550009D1FDF91CF91FF90EF90DF90CF90089596
:100560004AE0C701B6010E943102EC01ECCF4F9284
:100570005F926F927F928F929F92AF92BF92CF9233
:10058000DF92EF92FF920F931F93CF936B017C0149
:10059000742EAC019B010E946008882399F086E1CB
:1005A00091E0CF911F910F91FF90EF90DF90CF904E
:1005B000BF90AF909F908F907F906F905F904F9083
:1005C0000C94240246015701E894B7F82FEF3FEF4F
:1005D0004FE75FE7C501B4010E94600881110DC0BB
:1005E0002FEF3FEF4FE75FE7C501B4010E948F0691
:1005F00018161CF48AE191E0D4CF2FEF3FEF4FE7BC
:100600005FE4C701B6010E94EE0718161CF48EE1E4
:1006100091E0C7CF2FEF3FEF4FE75FECC701B60187
:100620000E948F0687FDF3CF20E030E0A901C701CB
:10063000B6010E948F0610E000E087FF0AC06DE25D
:1006400088E192E00E9446018C01F7FAF094F7F8F5
:10065000F094C0E060E070E080E09FE37C1641F041
:1006600020E030E040E251E40E949406CF5FF6CFF4
:10067000A70196010E9423062B013C010E940D0751
:100680004B015C014AE00E9431027C01E00EF11E48
:10069000CC23C1F1C501B4010E943C079B01AC0110
:1006A000C301B2010E9422064B015C016EE288E1A7
:1006B00092E00E944601E80EF91EC15018F120E0B8
:1006C00030E040E251E4C501B4010E94F3072B0180
:1006D0003C010E940D074B01B12CA12C4AE0C50141
:1006E000B4010E943102E80EF91EC501B4010E9456
:1006F0003C079B01AC01C301B2010E9422064B01E1
:100700005C01DBCFC701CF911F910F91FF90EF905C
:10071000DF90CF90BF90AF909F908F907F906F9021
:100720005F904F9008951F920F920FB60F92112471
:100730002F933F934F935F936F937F938F939F93E9
:10074000AF93BF93EF93FF9388E192E00E9424015F
:10075000FF91EF91BF91AF919F918F917F916F9199
:100760005F914F913F912F910F900FBE0F901F906F
:1007700018951F920F920FB60F9211242F938F93FB
:100780009F93EF93FF93E0912802F09129028081DB
:10079000E0912E02F0912F0282FD1BC0908180918A
:1007A00031028F5F8F7320913202821741F0E09106
:1007B0003102F0E0E85EFD4F958F80933102FF91AA
:1007C000EF919F918F912F910F900FBE0F901F90DF
:1007D00018958081F4CF1F920F920FB60F921124BB
:1007E0002F933F938F939F93AF93BF9380910B026F
:1007F00090910C02A0910D02B0910E0230910A026C
:1008000023E0230F2D3758F50196A11DB11D20932C
:100810000A0280930B0290930C02A0930D02B093F6
:100820000E0280910F0290911002A0911102B091DE
:1008300012020196A11DB11D80930F029093100228
:10084000A0931102B0931202BF91AF919F918F912B
:100850003F912F910F900FBE0F901F90189526E893
:10086000230F0296A11DB11DD2CF789484B582606A
:1008700084BD84B5816084BD85B5826085BD85B544
:10088000816085BD80916E00816080936E001092C2
:10089000810080918100826080938100809181003D
:1008A00081608093810080918000816080938000CE
:1008B0008091B10084608093B1008091B00081602C
:1008C0008093B00080917A00846080937A00809158
:1008D0007A00826080937A0080917A0081608093B0
:1008E0007A0080917A00806880937A001092C1002B
:1008F000E0912802F091290282E08083E0912402B5
:10090000F09125021082E0912602F09127028FECEF
:10091000808310923002E0912C02F0912D0286E04B
:100920008083E0912A02F0912B0280818061808394
:10093000E0912A02F0912B02808188608083E0910F
:100940002A02F0912B02808180688083E0912A0244
:10095000F0912B0280818F7D808383E00E9487004D
:1009600082E00E94870082E291E00E94770211E01B
:10097000C0E0D0E088E192E00E94040100E0181697
:1009800019060CF0D9C00E94FF014B015C0188E1FF
:1009900092E00E94E200082F82E391E00E9475023B
:1009A000602F70E090E080E04AE00E94310283E135
:1009B00091E00E942402D02EDD1CDD24DD1C0F708E
:1009C000E02EF12C8DE391E00E9475028D2D90E0D8
:1009D0000E9485028BE491E00E947502C7010E948B
:1009E000850287E591E00E94750288E692E40E9404
:1009F000850287E691E00E94750280E991E00E94FD
:100A0000850283E591E00E94750290E080E00E94FB
:100A1000850283E691E00E9475028AE090E00E94E0
:100A2000850283E791E00E9475028AE090E00E94CF
:100A300085028FE791E00E94750288E29FEB0E9499
:100A4000850280E991E00E94750242E060E070E872
:100A50008FEC94EC0E94B70283E191E00E942402A3
:100A6000B701FF0C880B990B0E943E0720E030E88D
:100A70004FEC54EC0E94F30720E030ED44E856E4DC
:100A80000E9423062B013C0181EA91E00E9475023D
:100A900042E0C301B2010E94B70283E191E00E94EB
:100AA0002402C301B2010E9406072B017B01CB0186
:100AB0000E94850282EB91E00E947502C2010E94B1
:100AC000850261E0D11001C060E082E00E94B301C4
:100AD00080E9481A81E0580A81EF48168CE35806ED
:100AE00008F07CC08BEB91E00E947702C701FF0CFD
:100AF000AA0BBB0B8093140290931502A0931602CD
:100B0000B0931702C0900001D12CF12CE12C0E946F
:100B1000FF01C818D908EA08FB08C60ED71EE81E50
:100B2000F91EF694E794D794C794C092000181EE21
:100B300091E00E94770201E080EF91E00E9475024F
:100B40006091140270911502809116029091170223
:100B50004AE00E94310283E191E00E9424028091E8
:100B6000140290911502A0911602B09117020297FB
:100B7000A105B10540F182E092E00E947702209148
:100B80000001011101C020E0809114029091150232
:100B9000A0911602B0911702821B9109A109B10917
:100BA0008230910538F0880F991F880F991F05979B
:100BB0000197F1F700911302602F83E00E94B301C7
:100BC000012700931302209709F4D4CE0E9410014C
:100BD000882309F4CFCE0E940000CCCE8AEC91E0AD
:100BE0000E947702F12CE12C81CFE8E1F2E0138240
:100BF000128288EE93E0A0E0B0E084839583A68320
:100C0000B78385E091E09183808385EC90E09587C0
:100C1000848784EC90E09787868780EC90E0918BC6
:100C2000808B81EC90E0938B828B82EC90E0958BB3
:100C3000848B86EC90E0978B868B118E128E138EB0
:100C4000148E08955058BB27AA270E943A060C9488
:100C5000B4070E94A60738F00E94AD0720F039F4CF
:100C60009F3F19F426F40C94A3070EF4E095E7FBDC
:100C70000C949D07E92F0E94C50758F3BA17620725
:100C800073078407950720F079F4A6F50C94E7071D
:100C90000EF4E0950B2EBA2FA02D0B01B901900197
:100CA0000C01CA01A0011124FF27591B99F0593FDB
:100CB00050F4503E68F11A16F040A22F232F342F23
:100CC0004427585FF3CF469537952795A795F04071
:100CD0005395C9F77EF41F16BA0B620B730B840B86
:100CE000BAF09150A1F0FF0FBB1F661F771F881F3E
:100CF000C2F70EC0BA0F621F731F841F48F4879596
:100D000077956795B795F7959E3F08F0B0CF939587
:100D1000880F08F09927EE0F9795879508950E9400
:100D2000790708F481E008950E94A8060C94B4079E
:100D30000E94AD0758F00E94A60740F029F45F3FDB
:100D400029F00C949D0751110C94E8070C94A3070B
:100D50000E94C50768F39923B1F3552391F3951BBE
:100D6000550BBB27AA2762177307840738F09F5FCC
:100D70005F4F220F331F441FAA1FA9F335D00E2E39
:100D80003AF0E0E832D091505040E695001CCAF7A6
:100D90002BD0FE2F29D0660F771F881FBB1F261769
:100DA00037074807AB07B0E809F0BB0B802DBF0140
:100DB000FF2793585F4F3AF09E3F510578F00C940F
:100DC0009D070C94E8075F3FE4F3983ED4F38695C3
:100DD00077956795B795F7959F5FC9F7880F911D30
:100DE0009695879597F90895E1E0660F771F881F1C
:100DF000BB1F621773078407BA0720F0621B730BCF
:100E0000840BBA0BEE1F88F7E09508950E940D073A
:100E10006894B1110C94E80708950E94CD0788F0FA
:100E20009F5798F0B92F9927B751B0F0E1F0660FAE
:100E3000771F881F991F1AF0BA95C9F714C0B130EF
:100E400091F00E94E707B1E008950C94E707672F3F
:100E5000782F8827B85F39F0B93FCCF3869577951E
:100E60006795B395D9F73EF4909580957095619507
:100E70007F4F8F4F9F4F0895E89409C097FB3EF432
:100E800090958095709561957F4F8F4F9F4F9923D7
:100E9000A9F0F92F96E9BB279395F6958795779555
:100EA0006795B795F111F8CFFAF4BB0F11F460FF15
:100EB0001BC06F5F7F4F8F4F9F4F16C0882311F06D
:100EC00096E911C0772321F09EE8872F762F05C081
:100ED000662371F096E8862F70E060E02AF09A951C
:100EE000660F771F881FDAF7880F9695879597F911
:100EF0000895990F0008550FAA0BE0E8FEEF1616AB
:100F00001706E807F907C0F012161306E407F507FD
:100F100098F0621B730B840B950B39F40A2661F071
:100F2000232B242B252B21F408950A2609F4A14014
:100F3000A6958FEF811D811D089597F99F6780E821
:100F400070E060E008959FEF80EC089500240A941B
:100F50001616170618060906089500240A94121694
:100F60001306140605060895092E0394000C11F4C7
:100F7000882352F0BB0F40F4BF2B11F460FF04C074
:100F80006F5F7F4F8F4F9F4F089557FD9058440FCD
:100F9000551F59F05F3F71F04795880F97FB991FD8
:100FA00061F09F3F79F08795089512161306140695
:100FB000551FF2CF4695F1DF08C016161706180622
:100FC000991FF1CF86957105610508940895E894FD
:100FD000BB2766277727CB0197F908950E947907E9
:100FE00008F48FEF08950E9406080C94B4070E943D
:100FF000A60738F00E94AD0720F0952311F00C945D
:101000009D070C94A30711240C94E8070E94C507C0
:1010100070F3959FC1F3950F50E0551F629FF0014B
:10102000729FBB27F00DB11D639FAA27F00DB11D64
:10103000AA1F649F6627B00DA11D661F829F2227ED
:10104000B00DA11D621F739FB00DA11D621F839F74
:10105000A00D611D221F749F3327A00D611D231F4A
:10106000849F600D211D822F762F6A2F11249F5798
:1010700050409AF0F1F088234AF0EE0FFF1FBB1F9B
:10108000661F771F881F91505040A9F79E3F51055A
:1010900080F00C949D070C94E8075F3FE4F3983EC2
:1010A000D4F3869577956795B795F795E7959F5F04
:1010B000C1F7FE2B880F911D9695879597F9089596
:1010C0000E947907880B990B0895A1E21A2EAA1B9A
:1010D000BB1BFD010DC0AA1FBB1FEE1FFF1FA217E8
:1010E000B307E407F50720F0A21BB30BE40BF50BE5
:1010F000661F771F881F991F1A9469F7609570956E
:10110000809590959B01AC01BD01CF010895EE0F34
:10111000FF1F0590F491E02D0994F894FFCF45004E
:101120000000004601A600D30093010401E200F68E
:10113000000D0A006E616E00696E66006F766600D3
:1011400053656E6420436F6D6D616E647320210082
:10115000656E636F64656456616C006973436C6FA0
:10116000636B776973653A200073706565643A2034
:10117000006E65775F6D696E5F76616C75653A20AC
:10118000006E65775F6D61785F76616C75653A209A
:10119000006E65775F72616E67653A20006F7269F5
:1011A00067696E616C5F72616E67653A2000736398
:1011B000616C696E675F666163746F723A20006F7D
:1011C000726967696E616C5F76616C75653A200063
:1011D0007374657055733A200041737369676E6963
:1011E0006E6720686572650041737369676E696E2A
:1011F00067204E6F7468696E67206865726500527B
:10120000657475726E696E672054727565007469D5
:101210006D6572496E74657276616C55733A200023
:08122000496E2068657265004B
:107E0000112484B714BE81FFF0D085E080938100F7
:107E100082E08093C00088E18093C10086E0809377
:107E2000C20080E18093C4008EE0C9D0259A86E02C
:107E300020E33CEF91E0309385002093840096BBD3
:107E4000B09BFECF1D9AA8958150A9F7CC24DD24C4
:107E500088248394B5E0AB2EA1E19A2EF3E0BF2EE7
:107E6000A2D0813461F49FD0082FAFD0023811F036
:107E7000013811F484E001C083E08DD089C08234E0
:107E800011F484E103C0853419F485E0A6D080C0E4
:107E9000853579F488D0E82EFF2485D0082F10E0AE
:107EA000102F00270E291F29000F111F8ED06801E7
:107EB0006FC0863521F484E090D080E0DECF843638
:107EC00009F040C070D06FD0082F6DD080E0C81688
:107ED00080E7D80618F4F601B7BEE895C0E0D1E017
:107EE00062D089930C17E1F7F0E0CF16F0E7DF06D8
:107EF00018F0F601B7BEE89568D007B600FCFDCFD4
:107F0000A601A0E0B1E02C9130E011968C91119780
:107F100090E0982F8827822B932B1296FA010C0160
:107F200087BEE89511244E5F5F4FF1E0A038BF0790
:107F300051F7F601A7BEE89507B600FCFDCF97BE46
:107F4000E89526C08437B1F42ED02DD0F82E2BD052
:107F50003CD0F601EF2C8F010F5F1F4F84911BD097
:107F6000EA94F801C1F70894C11CD11CFA94CF0C13
:107F7000D11C0EC0853739F428D08EE10CD085E9AC
:107F80000AD08FE07ACF813511F488E018D01DD067
:107F900080E101D065CF982F8091C00085FFFCCF94
:107FA0009093C60008958091C00087FFFCCF809118
:107FB000C00084FD01C0A8958091C6000895E0E648
:107FC000F0E098E1908380830895EDDF803219F02E
:107FD00088E0F5DFFFCF84E1DECF1F93182FE3DFCA
:107FE0001150E9F7F2DF1F91089580E0E8DFEE27F6
:047FF000FF270994CA
:027FFE00040479
:00000001FF
