:100000000C945D000C9485000C9485000C94850084
:100010000C9485000C9485000C9485000C9485004C
:100020000C9485000C9485000C9485000C94E402DB
:100030000C9485000C9485000C9485000C9485002C
:100040000C949A020C9485000C9468020C94420261
:100050000C9485000C9485000C9485000C9485000C
:100060000C9485000C94850000000008000201003B
:100070000003040700000000000000000000000072
:10008000250028002B0000000000240027002A0083
:10009000040404040404040402020202020203032E
:1000A0000303030301020408102040800102040836
:1000B0001020010204081020A00311241FBECFEF5E
:1000C000D8E0DEBFCDBF11E0A0E0B1E0ECE5F2E1A9
:1000D00002C005900D92A832B107D9F721E0A8E23D
:1000E000B1E001C01D92AC3FB207E1F710E0CDE5F1
:1000F000D0E004C02197FE010E942609CC35D1072B
:10010000C9F70E94FD030C942C090C94000090E0A8
:10011000FC01EC55FF4F249180579F4FFC018491C7
:10012000882399F090E0880F991FFC01EA57FF4F50
:10013000A591B491FC01E458FF4F859194918FB73C
:10014000F894EC91E22BEC938FBF0895AF92BF929D
:10015000CF92DF92EF92FF920F931F93CF93DF9393
:100160006C017B018B01040F151FEB015E01AE18C2
:10017000BF08C017D10759F06991D601ED91FC91E4
:100180000190F081E02DC6010995892B79F7C50111
:10019000DF91CF911F910F91FF90EF90DF90CF9063
:1001A000BF90AF900895FC01538D448D252F30E012
:1001B000842F90E0821B930B541710F0CF96089574
:1001C00001970895FC01918D828D981761F0A28DA1
:1001D000AE0FBF2FB11D5D968C91928D9F5F9F7367
:1001E000928F90E008958FEF9FEF0895FC01918D1D
:1001F000828D981731F0828DE80FF11D858D90E08A
:1002000008958FEF9FEF0895FC01918D228D892F26
:1002100090E0805C9F4F821B91098F73992708950E
:1002200087E391E00E94040121E0892B09F420E09A
:10023000822F089580E090E0892B29F00E94100120
:1002400081110C9400000895FC01A48DA80FB92F12
:10025000B11DA35ABF4F2C91848D90E001968F73EE
:100260009927848FA689B7892C93A089B1898C910D
:10027000837080648C93938D848D981306C002885C
:10028000F389E02D80818F7D80830895EF92FF9226
:100290000F931F93CF93DF93EC0181E0888F9B8DA9
:1002A0008C8D98131AC0E889F989808185FF15C063
:1002B0009FB7F894EE89FF896083E889F989808186
:1002C0008370806480839FBF81E090E0DF91CF9155
:1002D0001F910F91FF90EF900895F62E0B8D10E077
:1002E0000F5F1F4F0F731127E02E8C8D8E110CC0E6
:1002F0000FB607FCFACFE889F989808185FFF5CF31
:10030000CE010E942401F1CFEB8DEC0FFD2FF11DEA
:10031000E35AFF4FF0829FB7F8940B8FEA89FB896D
:1003200080818062CFCFCF93DF93EC01888D8823CB
:10033000B9F0AA89BB89E889F9898C9185FD03C048
:10034000808186FD0DC00FB607FCF7CF8C9185FF2D
:10035000F2CF808185FFEDCFCE010E942401E9CF4D
:10036000DF91CF91089590E0FC01E859FF4F24916F
:10037000FC01EC55FF4F3491FC01E057FF4FE49135
:10038000EE23C9F0222339F0233001F1A8F4213003
:1003900019F1223029F1F0E0EE0FFF1FE458FF4F72
:1003A000A591B4918FB7F894EC91611126C0309566
:1003B0003E233C938FBF08952730A9F02830C9F021
:1003C000243049F7809180008F7D03C080918000A8
:1003D0008F7780938000DFCF84B58F7784BDDBCFAC
:1003E00084B58F7DFBCF8091B0008F778093B00074
:1003F000D2CF8091B0008F7DF9CF3E2BDACF3FB7BF
:10040000F89480912E0190912F01A0913001B0912C
:10041000310126B5A89B05C02F3F19F00196A11DFB
:10042000B11D3FBFBA2FA92F982F8827BC01CD013E
:10043000620F711D811D911D42E0660F771F881F9D
:10044000991F4A95D1F70895FC0101900020E9F722
:100450003197AF01481B590BBC0187E391E00C9425
:10046000A600CF93DF93682F87E391E00E944601B7
:10047000EC0185E191E00E9424028C0F9D1FDF9129
:10048000CF9108951F920F920FB60F9211242F93C0
:100490003F934F935F936F937F938F939F93AF930C
:1004A000BF93EF93FF9387E391E00E942401FF91B4
:1004B000EF91BF91AF919F918F917F916F915F91DC
:1004C0004F913F912F910F900FBE0F901F90189555
:1004D0001F920F920FB60F9211242F938F939F9319
:1004E000EF93FF93E0914701F09148018081E09103
:1004F0004D01F0914E0182FD1BC090818091500111
:100500008F5F8F7320915101821741F0E09150016C
:10051000F0E0E95CFE4F958F80935001FF91EF91E1
:100520009F918F912F910F900FBE0F901F90189554
:100530008081F4CF1F920F920FB60F9211242F9348
:100540003F938F939F93AF93BF9380912A01909194
:100550002B01A0912C01B0912D013091290123E0B4
:10056000230F2D3758F50196A11DB11D20932901A8
:1005700080932A0190932B01A0932C01B0932D011D
:1005800080912E0190912F01A0913001B091310105
:100590000196A11DB11D80932E0190932F01A09370
:1005A0003001B0933101BF91AF919F918F913F91F5
:1005B0002F910F900FBE0F901F90189526E8230FD4
:1005C0000296A11DB11DD2CF1F920F920FB60F92AE
:1005D00011242F933F934F935F936F937F938F9348
:1005E0009F93AF93BF93CF93DF93EF93FF9380914C
:1005F0002801C091F801D0E087FF24C01092850047
:1006000010928400809128018F5F8093280180914F
:100610002801082E000C990B8C179D0724F480915B
:1006200028018C30C4F1809184009091850004965B
:1006300080349C4908F47AC08091840090918500B0
:10064000049676C080912801082E000C990B8C1717
:100650009D07C4F6E09128018E2FEE0F990BFC0147
:10066000EE0FFF1FE80FF91FEC52FE4F808186FF4F
:10067000C9CFE09128018E2FEE0F990BFC01EE0FF0
:10068000FF1FE80FF91FEC52FE4F808160E08F736F
:100690000E94B301B7CF2091840030918500E09192
:1006A00028018E2FEE0F990BFC01EE0FFF1FE80FB4
:1006B000F91FEC52FE4F81819281820F931F90931C
:1006C000890080938800E09128018E2FEE0F990B0E
:1006D000FC01EE0FFF1FE80FF91FEC52FE4F808167
:1006E00086FF11C0E09128018E2FEE0F990BFC01BF
:1006F000EE0FFF1FE80FF91FEC52FE4F808161E003
:100700008F730E94B301FF91EF91DF91CF91BF9161
:10071000AF919F918F917F916F915F914F913F9199
:100720002F910F900FBE0F901F90189580E49CE9B9
:1007300090938900809388008FEF80932801E3CF06
:1007400010923A011092390188EE93E0A0E0B0E0F7
:1007500080933B0190933C01A0933D01B0933E01F7
:1007600087E091E0909338018093370185EC90E029
:10077000909344018093430184EC90E09093460170
:100780008093450180EC90E090934801809347016D
:1007900081EC90E090934A018093490182EC90E0D3
:1007A00090934C0180934B0186EC90E090934E0126
:1007B00080934D01109250011092510110925201FC
:1007C000109253018091F8018C3098F491E0980FC9
:1007D0009093F8018093F90190E0FC01EE0FFF1F68
:1007E000E80FF91FEC52FE4F88EB9BE09283818368
:1007F00008958FEF8093F9010895CF93DF93CDB7DC
:10080000DEB7A7970FB6F894DEBF0FBECDBF7894C2
:1008100084B5826084BD84B5816084BD85B5826005
:1008200085BD85B5816085BD80916E0081608093B6
:100830006E0010928100809181008260809381001F
:10084000809181008160809381008091800081602F
:10085000809380008091B10084608093B10080918A
:10086000B00081608093B00080917A0084608093B2
:100870007A0080917A00826080937A0080917A0079
:10088000816080937A0080917A00806880937A00FA
:100890001092C100E0914701F091480182E080830D
:1008A000E0914301F09144011082E0914501F09103
:1008B00046018FEC808310924F01E0914B01F09143
:1008C0004C0186E08083E0914901F0914A018081EA
:1008D00080618083E0914901F0914A0180818860C4
:1008E0008083E0914901F0914A0180818068808392
:1008F000E0914901F0914A0180818F7D808383E0FE
:100900000E94870082E00E9487008091F9018C306C
:1009100008F052C089E00E9487008091F901282FD9
:1009200030E0F901EE0FFF1FE20FF31FEC52FE4F14
:100930009081907C9960908392EF9093FA0199E175
:100940009093FB012CE0622F0E941A09829FB00154
:10095000112430E020E0AB01420F531FFA01EE0FEB
:10096000FF1FE40FF51FEC52FE4F908196FD16C05D
:100970002F5F3F4F2C30310571F781110FC010925E
:10098000800082E0809381001092850010928400A4
:10099000B19A80916F00826080936F00E091F901BD
:1009A0008E2F90E0FC01EE0FFF1FE80FF91FEC52B5
:1009B000FE4F8081806480838DE00E94870088E103
:1009C00091E00E94240285E191E00E94240287E3E5
:1009D00091E00E940401F12C02970CF4F9C00E94EE
:1009E000FF012B013C0187E391E00E94E2008AA312
:1009F00087E391E00E94E200BC018AA18F70E82E9B
:100A0000F12C2AA122FB222720F92BA37727072EDE
:100A1000000C880B990B0E94F80720E030E04FE7AC
:100A200053E40E944E0720E030E044E353E40E9488
:100A300089084B015C0120E030E0A9010E94840894
:100A400020E030E040E05FE387FD27C1C501B4014D
:100A50000E94E2060E94C0078B010A551109B701E6
:100A6000FF0C880B990B0E94F80723E33BE846E450
:100A700055EC0E94890820E03EEF4FEF56E40E94BB
:100A8000E2060E94C0076CA37DA38EA39FA3809063
:100A9000000190900101800E911E85EB8816910453
:100AA00008F05BC0A090F9019BE09A1508F451C0D2
:100AB0008091FB01E8E52E2EE2E03E2E281A310857
:100AC00087FD3394220C331C220C331C8091FA01D5
:100AD00008E810E0081B110987FD1395000F111F8E
:100AE000000F111F6801012E000CEE08FF08910194
:100AF000032C000C440B550B2C193D094E095F09C2
:100B0000D4010E94A80624EB30E040E050E00E94AF
:100B10007E06BA01A9014C0D5D1D6E1D7F1D40179B
:100B200051072CF08101421553050CF48A01025043
:100B30001109000F111F2FB7F8948A2D90E0FC01C6
:100B4000EE0FFF1FE80FF91FEC52FE4F12830183D7
:100B50002FBF90920101809200016AA16095661FEB
:100B60006627661F82E00E94B3016BA18DE00E94A0
:100B7000B301CCA0DDA0E8EECE16E3E0DE0624F45F
:100B800058EEC52E53E0D52E0D2C000CEE08FF08B4
:100B9000C0923301D0923401E0923501F0923601D7
:100BA000C0900201D12CF12CE12C0E94FF01C4184D
:100BB000D508E608F708DC01CB018C0D9D1DAE1DA4
:100BC000BF1DB695A79597958795F82E809302013E
:100BD000209133013091340140913501509136011B
:100BE00019A28E010F5D1F4FCA01B9012AE030E042
:100BF00040E050E00E94B006605DF80162938F0112
:100C0000211531054105510579F7309719F0CF01CC
:100C10000E94240285E191E00E9424028091330128
:100C200090913401A0913501B09136018936F2E4FA
:100C30009F07A105B105B0F183E70E943102109131
:100C40003201612F83E00E94B3018BE999E00197A3
:100C5000F1F761E0612783E00E94B30180913301E5
:100C600090913401885692448F19910982309105F0
:100C700038F0880F991F880F991F05970197F1F792
:100C800080E090E0892B09F4A2CE0E941001882315
:100C900009F49DCE0E9400009ACEC501B4010E94C5
:100CA000E106D8CE0297A105B10520F187E60E94A2
:100CB00031028091330190913401A0913501B091BE
:100CC00036018F199109A109B1098230910538F0D7
:100CD000880F991F880F991F05970197F1F71091B9
:100CE0003201612F83E00E94B30121E012271093AB
:100CF0003201C6CF88E70E943102C2CF052E97FB92
:100D00001EF400940E94950657FD07D00E94B0067D
:100D100007FC03D04EF40C94950650954095309501
:100D200021953F4F4F4F5F4F089590958095709557
:100D300061957F4F8F4F9F4F08950E94D206A59FC8
:100D4000900DB49F900DA49F800D911D11240895C6
:100D5000B7FF0C949D060E949D06821B930B08957D
:100D6000A1E21A2EAA1BBB1BFD010DC0AA1FBB1FAF
:100D7000EE1FFF1FA217B307E407F50720F0A21B21
:100D8000B30BE40BF50B661F771F881F991F1A948E
:100D900069F760957095809590959B01AC01BD01B8
:100DA000CF010895A29FB001B39FC001A39F700D12
:100DB000811D1124911DB29F700D811D1124911D63
:100DC00008955058BB27AA270E94F9060C944A0898
:100DD0000E943C0838F00E94430820F039F49F3FFD
:100DE00019F426F40C9439080EF4E095E7FB0C9402
:100DF0003308E92F0E945B0858F3BA17620773079C
:100E00008407950720F079F4A6F50C947D080EF47C
:100E1000E0950B2EBA2FA02D0B01B90190010C010A
:100E2000CA01A0011124FF27591B99F0593F50F422
:100E3000503E68F11A16F040A22F232F342F44277A
:100E4000585FF3CF469537952795A795F040539572
:100E5000C9F77EF41F16BA0B620B730B840BBAF042
:100E60009150A1F0FF0FBB1F661F771F881FC2F7AD
:100E70000EC0BA0F621F731F841F48F487957795C1
:100E80006795B795F7959E3F08F0B0CF9395880F7B
:100E900008F09927EE0F9795879508950E946207AD
:100EA0000C944A080E94430858F00E943C0840F005
:100EB00029F45F3F29F00C94330851110C947E08FB
:100EC0000C9439080E945B0868F39923B1F3552309
:100ED00091F3951B550BBB27AA276217730784074D
:100EE00038F09F5F5F4F220F331F441FAA1FA9F3E3
:100EF00035D00E2E3AF0E0E832D091505040E695D1
:100F0000001CCAF72BD0FE2F29D0660F771F881F31
:100F1000BB1F261737074807AB07B0E809F0BB0B24
:100F2000802DBF01FF2793585F4F3AF09E3F510538
:100F300078F00C9433080C947E085F3FE4F3983EFD
:100F4000D4F3869577956795B795F7959F5FC9F721
:100F5000880F911D9695879597F90895E1E0660FA2
:100F6000771F881FBB1F621773078407BA0720F01B
:100F7000621B730B840BBA0BEE1F88F7E095089584
:100F80000E94C7076894B1110C947E0808950E94CE
:100F9000630888F09F5798F0B92F9927B751B0F0A0
:100FA000E1F0660F771F881F991F1AF0BA95C9F7ED
:100FB00014C0B13091F00E947D08B1E008950C9406
:100FC0007D08672F782F8827B85F39F0B93FCCF3B9
:100FD000869577956795B395D9F73EF4909580956A
:100FE000709561957F4F8F4F9F4F0895E89409C08A
:100FF00097FB3EF490958095709561957F4F8F4F4C
:101000009F4F9923A9F0F92F96E9BB279395F69561
:10101000879577956795B795F111F8CFFAF4BB0FDF
:1010200011F460FF1BC06F5F7F4F8F4F9F4F16C043
:10103000882311F096E911C0772321F09EE8872FCD
:10104000762F05C0662371F096E8862F70E060E089
:101050002AF09A95660F771F881FDAF7880F969502
:10106000879597F9089597F99F6780E870E060E0A9
:1010700008959FEF80EC089500240A941616170631
:1010800018060906089500240A9412161306140679
:1010900005060895092E0394000C11F4882352F0DC
:1010A000BB0F40F4BF2B11F460FF04C06F5F7F4F94
:1010B0008F4F9F4F089557FD9058440F551F59F07B
:1010C0005F3F71F04795880F97FB991F61F09F3F35
:1010D00079F087950895121613061406551FF2CF5E
:1010E0004695F1DF08C0161617061806991FF1CFAE
:1010F00086957105610508940895E894BB276627D5
:101100007727CB0197F908950E94F60808F48FEF2E
:1011100008950E949C080C944A080E943C0838F0EC
:101120000E94430820F0952311F00C9433080C948E
:10113000390811240C947E080E945B0870F3959F77
:10114000C1F3950F50E0551F629FF001729FBB27BE
:10115000F00DB11D639FAA27F00DB11DAA1F649F5A
:101160006627B00DA11D661F829F2227B00DA11D0D
:10117000621F739FB00DA11D621F839FA00D611D93
:10118000221F749F3327A00D611D231F849F600DB4
:10119000211D822F762F6A2F11249F5750409AF0DD
:1011A000F1F088234AF0EE0FFF1FBB1F661F771F69
:1011B000881F91505040A9F79E3F510580F00C9434
:1011C00033080C947E085F3FE4F3983ED4F3869591
:1011D00077956795B795F795E7959F5FC1F7FE2BD4
:1011E000880F911D9695879597F90895990F000896
:1011F000550FAA0BE0E8FEEF16161706E807F907E9
:10120000C0F012161306E407F50798F0621B730B83
:10121000840B950B39F40A2661F0232B242B252B04
:1012200021F408950A2609F4A140A6958FEF811DA7
:10123000811D0895991B79E004C0991F961708F045
:10124000961B881F7A95C9F780950895EE0FFF1FAA
:0C1250000590F491E02D0994F894FFCF74
:10125C005A0045000000004601A600D3009301048B
:10126C0001E200F6000D0A0053656E6420436F6DB9
:08127C006D616E647320210016
:00000001FF
