:100000000C945D000C9485000C9485000C94850084
:100010000C9485000C9485000C9485000C9485004C
:100020000C9485000C9485000C9485000C94C602F9
:100030000C9485000C9485000C9485000C9485002C
:100040000C947C020C9485000C944A020C942402BB
:100050000C9485000C9485000C9485000C9485000C
:100060000C9485000C94850000000008000201003B
:100070000003040700000000000000000000000072
:10008000250028002B0000000000240027002A0083
:10009000040404040404040402020202020203032E
:1000A0000303030301020408102040800102040836
:1000B0001020010204081020820311241FBECFEF7C
:1000C000D8E0DEBFCDBF11E0A0E0B1E0EEE9F1E1A4
:1000D00002C005900D92A632B107D9F721E0A6E241
:1000E000B1E001C01D92AA3FB207E1F710E0CDE5F3
:1000F000D0E004C02197FE010E94C708CC35D1078B
:10010000C9F70E94DF030C94CD080C94000090E026
:10011000FC01EC55FF4F249180579F4FFC018491C7
:10012000882399F090E0880F991FFC01EA57FF4F50
:10013000A591B491FC01E458FF4F859194918FB73C
:10014000F894EC91E22BEC938FBF0895AF92BF929D
:10015000CF92DF92EF92FF920F931F93CF93DF9393
:100160006C017B018B01040F151FEB015E01AE18C2
:10017000BF08C017D10759F06991D601ED91FC91E4
:100180000190F081E02DC6010995892B79F7C50111
:10019000DF91CF911F910F91FF90EF90DF90CF9063
:1001A000BF90AF900895FC01538D448D252F30E012
:1001B000842F90E0821B930B541710F0CF96089574
:1001C00001970895FC01918D828D981761F0A28DA1
:1001D000AE0FBF2FB11D5D968C91928D9F5F9F7367
:1001E000928F90E008958FEF9FEF0895FC01918D1D
:1001F000828D981731F0828DE80FF11D858D90E08A
:1002000008958FEF9FEF0895FC01918D228D892F26
:1002100090E0805C9F4F821B91098F73992708950E
:1002200085E391E00E94040121E0892B09F420E09C
:10023000822F089580E090E0892B29F00E94100120
:1002400081110C9400000895FC01A48DA80FB92F12
:10025000B11DA35ABF4F2C91848D90E001968F73EE
:100260009927848FA689B7892C93A089B1898C910D
:10027000837080648C93938D848D981306C002885C
:10028000F389E02D80818F7D80830895EF92FF9226
:100290000F931F93CF93DF93EC0181E0888F9B8DA9
:1002A0008C8D98131AC0E889F989808185FF15C063
:1002B0009FB7F894EE89FF896083E889F989808186
:1002C0008370806480839FBF81E090E0DF91CF9155
:1002D0001F910F91FF90EF900895F62E0B8D10E077
:1002E0000F5F1F4F0F731127E02E8C8D8E110CC0E6
:1002F0000FB607FCFACFE889F989808185FFF5CF31
:10030000CE010E942401F1CFEB8DEC0FFD2FF11DEA
:10031000E35AFF4FF0829FB7F8940B8FEA89FB896D
:1003200080818062CFCFCF93DF93EC01888D8823CB
:10033000B9F0AA89BB89E889F9898C9185FD03C048
:10034000808186FD0DC00FB607FCF7CF8C9185FF2D
:10035000F2CF808185FFEDCFCE010E942401E9CF4D
:10036000DF91CF91089590E0FC01E859FF4F24916F
:10037000FC01EC55FF4F3491FC01E057FF4FE49135
:10038000EE23C9F0222339F0233001F1A8F4213003
:1003900019F1223029F1F0E0EE0FFF1FE458FF4F72
:1003A000A591B4918FB7F894EC91611126C0309566
:1003B0003E233C938FBF08952730A9F02830C9F021
:1003C000243049F7809180008F7D03C080918000A8
:1003D0008F7780938000DFCF84B58F7784BDDBCFAC
:1003E00084B58F7DFBCF8091B0008F778093B00074
:1003F000D2CF8091B0008F7DF9CF3E2BDACF3FB7BF
:10040000F89480912C0190912D01A0912E01B09132
:100410002F0126B5A89B05C02F3F19F00196A11DFD
:10042000B11D3FBFBA2FA92F982F8827BC01CD013E
:10043000620F711D811D911D42E0660F771F881F9D
:10044000991F4A95D1F708951F920F920FB60F92F8
:1004500011242F933F934F935F936F937F938F93C9
:100460009F93AF93BF93EF93FF9385E391E00E9437
:100470002401FF91EF91BF91AF919F918F917F9157
:100480006F915F914F913F912F910F900FBE0F9001
:100490001F9018951F920F920FB60F9211242F9351
:1004A0008F939F93EF93FF93E0914501F091460165
:1004B0008081E0914B01F0914C0182FD1BC0908145
:1004C00080914E018F5F8F7320914F01821741F011
:1004D000E0914E01F0E0EB5CFE4F958F80934E0172
:1004E000FF91EF919F918F912F910F900FBE0F90E1
:1004F0001F9018958081F4CF1F920F920FB60F9224
:1005000011242F933F938F939F93AF93BF93809129
:10051000280190912901A0912A01B0912B013091DD
:10052000270123E0230F2D3758F50196A11DB11D9A
:10053000209327018093280190932901A0932A01F9
:10054000B0932B0180912C0190912D01A0912E014F
:10055000B0912F010196A11DB11D80932C019093A4
:100560002D01A0932E01B0932F01BF91AF919F91C8
:100570008F913F912F910F900FBE0F901F90189564
:1005800026E8230F0296A11DB11DD2CF1F920F9214
:100590000FB60F9211242F933F934F935F936F9356
:1005A0007F938F939F93AF93BF93CF93DF93EF93FB
:1005B000FF9380912601C091F601D0E087FF24C00F
:1005C0001092850010928400809126018F5F8093A5
:1005D000260180912601082E000C990B8C179D078F
:1005E00024F4809126018C30C4F180918400909194
:1005F0008500049680349C4908F47AC08091840078
:1006000090918500049676C080912601082E000CFA
:10061000990B8C179D07C4F6E09126018E2FEE0FE3
:10062000990BFC01EE0FFF1FE80FF91FEE52FE4F72
:10063000808186FFC9CFE09126018E2FEE0F990BA6
:10064000FC01EE0FFF1FE80FF91FEE52FE4F8081F5
:1006500060E08F730E94B301B7CF20918400309186
:100660008500E09126018E2FEE0F990BFC01EE0F15
:10067000FF1FE80FF91FEE52FE4F81819281820F1A
:10068000931F9093890080938800E09126018E2F1C
:10069000EE0F990BFC01EE0FFF1FE80FF91FEE5252
:1006A000FE4F808186FF11C0E09126018E2FEE0F54
:1006B000990BFC01EE0FFF1FE80FF91FEE52FE4FE2
:1006C000808161E08F730E94B301FF91EF91DF9110
:1006D000CF91BF91AF919F918F917F916F915F91DA
:1006E0004F913F912F910F900FBE0F901F90189533
:1006F00080E49CE990938900809388008FEF809339
:100700002601E3CF109238011092370188EE93E072
:10071000A0E0B0E08093390190933A01A0933B01AF
:10072000B0933C0185E091E09093360180933501D0
:1007300085EC90E0909342018093410184EC90E03D
:10074000909344018093430180EC90E090934601A4
:100750008093450181EC90E090934801809347019C
:1007600082EC90E090934A018093490186EC90E0FE
:1007700090934C0180934B0110924E0110924F01C7
:1007800010925001109251018091F6018C3098F432
:1007900091E0980F9093F6018093F70190E0FC01AF
:1007A000EE0FFF1FE80FF91FEE52FE4F88EB9BE0A4
:1007B0009283818308958FEF8093F7010895CF93FB
:1007C000DF9300D000D0CDB7DEB7789484B58260D7
:1007D00084BD84B5816084BD85B5826085BD85B5E5
:1007E000816085BD80916E00816080936E00109263
:1007F00081008091810082608093810080918100DE
:10080000816080938100809180008160809380006E
:100810008091B10084608093B1008091B0008160CC
:100820008093B00080917A00846080937A008091F8
:100830007A00826080937A0080917A008160809350
:100840007A0080917A00806880937A001092C100CB
:10085000E0914501F091460182E08083E091410101
:10086000F09142011082E0914301F09144018FEC3C
:10087000808310924D01E0914901F0914A0186E098
:100880008083E0914701F0914801808180618083FD
:10089000E0914701F0914801808188608083E09178
:1008A0004701F0914801808180688083E091470191
:1008B000F091480180818F7D808383E00E948700D2
:1008C00082E00E9487008091F7018C3008F052C0CE
:1008D00089E00E9487008091F701282F30E0F9011C
:1008E000EE0FFF1FE20FF31FEE52FE4F9081907C40
:1008F0009960908392EF9093F80199E19093F901B8
:100900002CE0622F0E94BB08829FB001112430E0CE
:1009100020E0AB01420F531FFA01EE0FFF1FE40F5F
:10092000F51FEE52FE4F908196FD16C02F5F3F4F90
:100930002C30310571F781110FC01092800082E0D8
:10094000809381001092850010928400B19A80916A
:100950006F00826080936F00E091F7018E2F90E02E
:10096000FC01EE0FFF1FE80FF91FEE52FE4F8081D2
:10097000806480838DE00E9487004FE050E063E157
:1009800071E085E391E00E94A60042E050E063E25E
:1009900071E085E391E00E94A60018E8212E312C39
:1009A00085E391E00E94040120E002970CF408C165
:1009B0000E94FF014B015C0185E391E00E94E2008F
:1009C000182F85E391E00E94E200212F221F2227A9
:1009D000221F2983612F6F70E62EF12C12FB112745
:1009E00010F91A83BC017727072E000C880B990B8E
:1009F0000E94990720E030E04FE753E40E94EF06A1
:100A000020E030E044E353E40E942A082B013C013B
:100A100020E030E0A9010E94250820E030E040E01D
:100A20005FE387FD05C1C301B2010E9483060E94F6
:100A300061077C836B83B701FF0C880B990B0E94C5
:100A4000990720E030E048EC54EC0E942A0820E0AE
:100A500030ED44E856E40E9483060E9461072B01B2
:100A60008B014B815C8140325240E4F58091F8016A
:100A70006101C81AD10887FDD394CC0CDD1CCC0CC5
:100A8000DD1C0D2C000CEE08FF088091F90128E513
:100A900032E0281B310987FD3395220F331F220FC7
:100AA000331F032E000C440B550B2C193D094E0926
:100AB0005F09AB81BC81A53BB10514F0A4EBB0E0AC
:100AC000B7FF02C0B0E0A0E00E94490624EB30E08E
:100AD00040E050E00E941F06C20ED31EE41EF51E29
:100AE000DC82CB822091F7012C30A8F58091F801AF
:100AF000A101481B510987FD5395CA01880F991F11
:100B0000880F991F4B815C81481759079CF0809191
:100B1000F90148E552E0481B510987FD5395CA0188
:100B2000880F991F880F991F4B815C8148175907BF
:100B30000CF4CA010297880F991F6FB7F89430E040
:100B4000A901440F551F240F351FF901EE52FE4F26
:100B5000928381836FBF698182E00E94B3016A81C1
:100B60008DE00E94B30158EE451A53E0550A80E823
:100B700048168EE3580610F010E000E0C801110F8F
:100B8000AA0BBB0B8093310190933201A0933301E8
:100B9000B0933401C0900001D12CF12CE12C0E94C3
:100BA000FF01C818D908EA08FB08C60ED71EE81EC0
:100BB000F91EF694E794D794C794C092000121E0FF
:100BC0008091310190913201A0913301B0913401B3
:100BD00082309105A105B105F0F0222371F1209139
:100BE0000001821B9109A109B1098230910538F0F9
:100BF000880F991F880F991F05970197F1F790911A
:100C000030019983692F83E00E94B301298141E07B
:100C100024272093300180E090E0892B09F4C0CE96
:100C20000E941001882309F4BBCE0E940000B8CEB8
:100C3000C301B2010E948206FACE20E0D2CF052E77
:100C400097FB1EF400940E94360657FD07D00E94C1
:100C5000510607FC03D04EF40C943606509540958F
:100C6000309521953F4F4F4F5F4F08959095809558
:100C7000709561957F4F8F4F9F4F08950E94730627
:100C8000A59F900DB49F900DA49F800D911D1124E0
:100C90000895B7FF0C943E060E943E06821B930BFC
:100CA0000895A1E21A2EAA1BBB1BFD010DC0AA1FAD
:100CB000BB1FEE1FFF1FA217B307E407F50720F0C5
:100CC000A21BB30BE40BF50B661F771F881F991F40
:100CD0001A9469F760957095809590959B01AC0189
:100CE000BD01CF010895A29FB001B39FC001A39F92
:100CF000700D811D1124911DB29F700D811D112455
:100D0000911D08955058BB27AA270E949A060C945B
:100D1000EB070E94DD0738F00E94E40720F039F469
:100D20009F3F19F426F40C94DA070EF4E095E7FBE4
:100D30000C94D407E92F0E94FC0758F3BA176207F6
:100D400073078407950720F079F4A6F50C941E0824
:100D50000EF4E0950B2EBA2FA02D0B01B9019001D6
:100D60000C01CA01A0011124FF27591B99F0593F1A
:100D700050F4503E68F11A16F040A22F232F342F62
:100D80004427585FF3CF469537952795A795F040B0
:100D90005395C9F77EF41F16BA0B620B730B840BC5
:100DA000BAF09150A1F0FF0FBB1F661F771F881F7D
:100DB000C2F70EC0BA0F621F731F841F48F48795D5
:100DC00077956795B795F7959E3F08F0B0CF9395C7
:100DD000880F08F09927EE0F9795879508950E9440
:100DE00003070C94EB070E94E40758F00E94DD070C
:100DF00040F029F45F3F29F00C94D40751110C9472
:100E00001F080C94DA070E94FC0768F39923B1F3DA
:100E1000552391F3951B550BBB27AA276217730720
:100E2000840738F09F5F5F4F220F331F441FAA1FB4
:100E3000A9F335D00E2E3AF0E0E832D09150504070
:100E4000E695001CCAF72BD0FE2F29D0660F771F1E
:100E5000881FBB1F261737074807AB07B0E809F004
:100E6000BB0B802DBF01FF2793585F4F3AF09E3F89
:100E7000510578F00C94D4070C941F085F3FE4F3FD
:100E8000983ED4F3869577956795B795F7959F5FCC
:100E9000C9F7880F911D9695879597F90895E1E018
:100EA000660F771F881FBB1F621773078407BA0777
:100EB00020F0621B730B840BBA0BEE1F88F7E095D2
:100EC00008950E9468076894B1110C941F08089552
:100ED0000E94040888F09F5798F0B92F9927B751BE
:100EE000B0F0E1F0660F771F881F991F1AF0BA95CE
:100EF000C9F714C0B13091F00E941E08B1E0089506
:100F00000C941E08672F782F8827B85F39F0B93FF7
:100F1000CCF3869577956795B395D9F73EF4909580
:100F20008095709561957F4F8F4F9F4F0895E894FE
:100F300009C097FB3EF490958095709561957F4F21
:100F40008F4F9F4F9923A9F0F92F96E9BB279395CF
:100F5000F695879577956795B795F111F8CFFAF4DF
:100F6000BB0F11F460FF1BC06F5F7F4F8F4F9F4F10
:100F700016C0882311F096E911C0772321F09EE86E
:100F8000872F762F05C0662371F096E8862F70E0D4
:100F900060E02AF09A95660F771F881FDAF7880FAE
:100FA0009695879597F9089597F99F6780E870E07F
:100FB00060E008959FEF80EC089500240A941616CF
:100FC000170618060906089500240A941216130637
:100FD000140605060895092E0394000C11F48823C5
:100FE00052F0BB0F40F4BF2B11F460FF04C06F5FE1
:100FF0007F4F8F4F9F4F089557FD9058440F551FB7
:1010000059F05F3F71F04795880F97FB991F61F08A
:101010009F3F79F087950895121613061406551F01
:10102000F2CF4695F1DF08C0161617061806991F6D
:10103000F1CF86957105610508940895E894BB2762
:1010400066277727CB0197F908950E94970808F43F
:101050008FEF08950E943D080C94EB070E94DD0776
:1010600038F00E94E40720F0952311F00C94D40787
:101070000C94DA0711240C941F080E94FC0770F3EB
:10108000959FC1F3950F50E0551F629FF001729F2D
:10109000BB27F00DB11D639FAA27F00DB11DAA1F3C
:1010A000649F6627B00DA11D661F829F2227B00D89
:1010B000A11D621F739FB00DA11D621F839FA00D14
:1010C000611D221F749F3327A00D611D231F849F64
:1010D000600D211D822F762F6A2F11249F575040BB
:1010E0009AF0F1F088234AF0EE0FFF1FBB1F661F36
:1010F000771F881F91505040A9F79E3F510580F0FF
:101100000C94D4070C941F085F3FE4F3983ED4F38B
:10111000869577956795B795F795E7959F5FC1F7A2
:10112000FE2B880F911D9695879597F90895990F35
:101130000008550FAA0BE0E8FEEF16161706E807A1
:10114000F907C0F012161306E407F50798F0621BC2
:10115000730B840B950B39F40A2661F0232B242B97
:10116000252B21F408950A2609F4A140A6958FEFB6
:10117000811D811D0895991B79E004C0991F961760
:1011800008F0961B881F7A95C9F780950895EE0F91
:0E119000FF1F0590F491E02D0994F894FFCF15
:10119E0045000000004601A600D30093010401E2C1
:1011AE0000F60053656E6420436F6D6D616E64735F
:0611BE002021000D0A00D3
:00000001FF
