:020000040000FA
:100000000C945D000C9485000C9485000C94850084
:100010000C9485000C9485000C9485000C9485004C
:100020000C9485000C9485000C9485000C9454036A
:100030000C9485000C9485000C9485000C9485002C
:100040000C940A030C9485000C94D8020C94B20210
:100050000C9485000C9485000C9485000C9485000C
:100060000C9485000C94850000000008000201003B
:100070000003040700000000000000000000000072
:10008000250028002B0000000000240027002A0083
:10009000040404040404040402020202020203032E
:1000A0000303030301020408102040800102040836
:1000B0001020010204081020100411241FBECFEFED
:1000C000D8E0DEBFCDBF11E0A0E0B1E0EAEBF2E1A5
:1000D00002C005900D92A239B107D9F722E0A2E93A
:1000E000B1E001C01D92A636B207E1F710E0CDE500
:1000F000D0E004C02197FE010E945509CC35D107FC
:10010000C9F70E946D040C945B090C94000090E008
:10011000FC01EC55FF4F249180579F4FFC018491C7
:10012000882399F090E0880F991FFC01EA57FF4F50
:10013000A591B491FC01E458FF4F859194918FB73C
:10014000F894EC91E22BEC938FBF0895AF92BF929D
:10015000CF92DF92EF92FF920F931F93CF93DF9393
:100160006C017B018B01040F151FEB015E01AE18C2
:10017000BF08C017D10759F06991D601ED91FC91E4
:100180000190F081E02DC6010995892B79F7C50111
:10019000DF91CF911F910F91FF90EF90DF90CF9063
:1001A000BF90AF900895FC01538D448D252F30E012
:1001B000842F90E0821B930B541710F0CF96089574
:1001C00001970895FC01918D828D981761F0A28DA1
:1001D000AE0FBF2FB11D5D968C91928D9F5F9F7367
:1001E000928F90E008958FEF9FEF0895FC01918D1D
:1001F000828D981731F0828DE80FF11D858D90E08A
:1002000008958FEF9FEF0895FC01918D228D892F26
:1002100090E0805C9F4F821B91098F73992708950E
:1002200081EA91E00E94040121E0892B09F420E099
:10023000822F089580E090E0892B29F00E94100120
:1002400081110C9400000895FC01A48DA80FB92F12
:10025000B11DA35ABF4F2C91848D90E001968F73EE
:100260009927848FA689B7892C93A089B1898C910D
:10027000837080648C93938D848D981306C002885C
:10028000F389E02D80818F7D80830895EF92FF9226
:100290000F931F93CF93DF93EC0181E0888F9B8DA9
:1002A0008C8D98131AC0E889F989808185FF15C063
:1002B0009FB7F894EE89FF896083E889F989808186
:1002C0008370806480839FBF81E090E0DF91CF9155
:1002D0001F910F91FF90EF900895F62E0B8D10E077
:1002E0000F5F1F4F0F731127E02E8C8D8E110CC0E6
:1002F0000FB607FCFACFE889F989808185FFF5CF31
:10030000CE010E942401F1CFEB8DEC0FFD2FF11DEA
:10031000E35AFF4FF0829FB7F8940B8FEA89FB896D
:1003200080818062CFCFCF93DF93EC01888D8823CB
:10033000B9F0AA89BB89E889F9898C9185FD03C048
:10034000808186FD0DC00FB607FCF7CF8C9185FF2D
:10035000F2CF808185FFEDCFCE010E942401E9CF4D
:10036000DF91CF91089590E0FC01E859FF4F24916F
:10037000FC01EC55FF4F3491FC01E057FF4FE49135
:10038000EE23C9F0222339F0233001F1A8F4213003
:1003900019F1223029F1F0E0EE0FFF1FE458FF4F72
:1003A000A591B4918FB7F894EC91611126C0309566
:1003B0003E233C938FBF08952730A9F02830C9F021
:1003C000243049F7809180008F7D03C080918000A8
:1003D0008F7780938000DFCF84B58F7784BDDBCFAC
:1003E00084B58F7DFBCF8091B0008F778093B00074
:1003F000D2CF8091B0008F7DF9CF3E2BDACF3FB7BF
:10040000F8948091940190919501A0919601B091FA
:10041000970126B5A89B05C02F3F19F00196A11D95
:10042000B11D3FBFBA2FA92F982F8827BC01CD013E
:10043000620F711D811D911D42E0660F771F881F9D
:10044000991F4A95D1F70895FC0101900020E9F722
:100450003197AF01481B590BBC0181EA91E00C9424
:10046000A6008F929F92AF92BF920F931F93CF934C
:10047000DF93CDB7DEB7A1970FB6F894DEBF0FBEFE
:10048000CDBF19A2423008F44AE08E010F5D1F4F24
:10049000842E912CB12CA12CA50194010E947508E9
:1004A000E62FB901CA01EA30F4F4E05DD801EE9319
:1004B0008D01232B242B252B79F790E080E01097DA
:1004C00019F0CD010E942402A1960FB6F894DEBF68
:1004D0000FBECDBFDF91CF911F910F91BF90AF9015
:1004E0009F908F900895E95CE1CFCF93DF93682FC1
:1004F00081EA91E00E944601EC0185E191E00E94D1
:1005000024028C0F9D1FDF91CF910895CF92DF922F
:10051000EF92FF92CF93DF9397FF1BC06B017C019B
:100520006DE281EA91E00E944601EC01662777279F
:10053000CB016C197D098E099F094AE00E943102A6
:100540008C0F9D1FDF91CF91FF90EF90DF90CF90A8
:1005500008954AE0DF91CF91FF90EF90DF90CF9028
:100560000C9431021F920F920FB60F9211242F9309
:100570003F934F935F936F937F938F939F93AF932B
:10058000BF93EF93FF9381EA91E00E942401FF91D2
:10059000EF91BF91AF919F918F917F916F915F91FB
:1005A0004F913F912F910F900FBE0F901F90189574
:1005B0001F920F920FB60F9211242F938F939F9338
:1005C000EF93FF93E091B101F091B2018081E0914E
:1005D000B701F091B80182FD1BC090818091BA01F2
:1005E0008F5F8F732091BB01821741F0E091BA01B8
:1005F000F0E0EF55FE4F958F8093BA01FF91EF9198
:100600009F918F912F910F900FBE0F901F90189573
:100610008081F4CF1F920F920FB60F9211242F9367
:100620003F938F939F93AF93BF9380919801909145
:100630009901A0919A01B0919B013091930123E01F
:10064000230F2D3758F50196A11DB11D209393015D
:100650008093980190939901A0939A01B0939B0184
:100660008091940190919501A0919601B09197018C
:100670000196A11DB11D8093940190939501A093C3
:100680009601B0939701BF91AF919F918F913F9148
:100690002F910F900FBE0F901F90189526E8230FF3
:1006A0000296A11DB11DD2CF1F920F920FB60F92CD
:1006B00011242F933F934F935F936F937F938F9367
:1006C0009F93AF93BF93CF93DF93EF93FF9380916B
:1006D0009201C0916202D0E087FF24C01092850091
:1006E00010928400809192018F5F8093920180919B
:1006F0009201082E000C990B8C179D0724F4809111
:1007000092018C30C4F18091840090918500049610
:1007100080349C4908F47AC08091840090918500CF
:10072000049676C080919201082E000C990B8C17CC
:100730009D07C4F6E09192018E2FEE0F990BFC01FC
:10074000EE0FFF1FE80FF91FE25CFD4F808186FF6F
:10075000C9CFE09192018E2FEE0F990BFC01EE0FA5
:10076000FF1FE80FF91FE25CFD4F808160E08F738F
:100770000E94B301B7CF2091840030918500E091B1
:1007800092018E2FEE0F990BFC01EE0FFF1FE80F69
:10079000F91FE25CFD4F81819281820F931F90933C
:1007A000890080938800E09192018E2FEE0F990BC3
:1007B000FC01EE0FFF1FE80FF91FE25CFD4F808187
:1007C00086FF11C0E09192018E2FEE0F990BFC0174
:1007D000EE0FFF1FE80FF91FE25CFD4F808161E023
:1007E0008F730E94B301FF91EF91DF91CF91BF9181
:1007F000AF919F918F917F916F915F914F913F91B9
:100800002F910F900FBE0F901F90189580E49CE9D8
:1008100090938900809388008FEF80939201E3CFBB
:100820001092A4011092A30188EE93E0A0E0B0E042
:100830008093A5019093A601A093A701B093A8016E
:1008400087E091E09093A2018093A10185EC90E074
:100850009093AE018093AD0184EC90E09093B00151
:100860008093AF0180EC90E09093B2018093B1014E
:1008700081EC90E09093B4018093B30182EC90E01E
:100880009093B6018093B50186EC90E09093B80107
:100890008093B7011092BA011092BB011092BC0173
:1008A0001092BD01809162028C3098F491E0980F13
:1008B000909362028093630290E0FC01EE0FFF1FB1
:1008C000E80FF91FE25CFD4F88EB9BE09283818388
:1008D00008958FEF809363020895CF93DF93CDB790
:1008E000DEB767970FB6F894DEBF0FBECDBF789422
:1008F00084B5826084BD84B5816084BD85B5826025
:1009000085BD85B5816085BD80916E0081608093D5
:100910006E0010928100809181008260809381003E
:10092000809181008160809381008091800081604E
:10093000809380008091B10084608093B1008091A9
:10094000B00081608093B00080917A0084608093D1
:100950007A0080917A00826080937A0080917A0098
:10096000816080937A0080917A00806880937A0019
:100970001092C100E091B101F091B20182E0808358
:10098000E091AD01F091AE011082E091AF01F091E4
:10099000B0018FEC80831092B901E091B501F09124
:1009A000B60186E08083E091B301F091B4018081CB
:1009B00080618083E091B301F091B401808188600F
:1009C0008083E091B301F091B401808180688083DD
:1009D000E091B301F091B40180818F7D808383E049
:1009E0000E94870082E00E948700809163028C3021
:1009F00008F052C089E00E94870080916302282F8E
:100A000030E0F901EE0FFF1FE20FF31FE25CFD4F34
:100A10009081907C9960908392EF9093640299E129
:100A2000909365022CE0622F0E944909829FB001D9
:100A3000112430E020E0AB01420F531FFA01EE0F0A
:100A4000FF1FE40FF51FE25CFD4F908196FD16C07D
:100A50002F5F3F4F2C30310571F781110FC010927D
:100A6000800082E0809381001092850010928400C3
:100A7000B19A80916F00826080936F00E091630271
:100A80008E2F90E0FC01EE0FFF1FE80FF91FE25CD4
:100A9000FD4F8081806480838DE00E94870088E123
:100AA00091E00E94240285E191E00E94240280E00E
:100AB000282F30E050E040E02B873C874D875E8751
:100AC000A12C8F708F87DA01C901888B998BAA8B33
:100AD000BB8B26EA3FEF032E000C440B550B2C8BEF
:100AE0003D8B4E8B5F8B9F85892F90E0B0E0A0E01F
:100AF0008B839C83AD83BE8381EA91E00E940401D5
:100B000002970CF48FC10E94FF016F837887898759
:100B10009A878E010F5F1F4F7E01A3E0EA0EF11C42
:100B20002FB7F8948091980190919901A0919A0122
:100B3000B0919B012FBF8093A9019093AA01A0932C
:100B4000AB01B093AC0181EA91E00E94E20097FF13
:100B500097C12FB7F8948091980190919901A09135
:100B60009A01B0919B012FBF4091A9015091AA0118
:100B70006091AB017091AC01841B950BA60BB70B78
:100B80004091A5015091A6016091A7017091A80123
:100B900084179507A607B707B0F288E291E00E9494
:100BA00024024AE06B857C858D859E850E943102FA
:100BB00088E391E00E9424026B817C818D819E817B
:100BC0000E9486028BE491E00E9424026889798960
:100BD0008A899B890E94860289E591E00E9424020D
:100BE0006C897D898E899F890E94860260E070E011
:100BF000CB010E944A072EEA3AE045EA59E30E94F7
:100C0000850720E03EEF4FEF56E40E94A7080E94C0
:100C100013096B0186E691E00E942402B6010D2CB7
:100C2000000C880B990B0E94860289E791E00E94D4
:100C300024026B817C818D819E810E94860285E1E8
:100C400091E00E9424022090000130900101F10106
:100C5000EA55F1091F01F5EB2F16310408F059C0D0
:100C6000B09063022BE02B1508F44FC08091650211
:100C7000E8E58E2EE2E09E2E881A910887FD939477
:100C8000880C991C880C991C8091640208E810E07B
:100C9000081B110987FD1395000F111F000F111F6D
:100CA0002801012E000C660877089401092C000C1D
:100CB000440B550B2419350946095709D1010E94E7
:100CC0006D0824EB30E040E050E00E944308420E03
:100CD000531E641E751E401651062CF084014814E4
:100CE00059040CF4820102501109000F111F2FB793
:100CF000F8948B2D90E0FC01EE0FFF1FE80FF91F19
:100D0000E25CFD4F128301832FBF309201012092DC
:100D1000000161E082E00E94B3016A2D8DE00E9433
:100D2000B30138EEC31633E0D30624F458EEC52ED3
:100D300053E0D52E0D2C000CEE08FF08C0929D014B
:100D4000D0929E01E0929F01F092A001C09002011A
:100D5000D12CF12CE12C0E94FF012F81388549858F
:100D60005A85C21AD30AE40AF50AC60ED71EE81E2F
:100D7000F91EF694E794D794C7940C2DC092020103
:100D800080E891E00E94240260919D0170919E0193
:100D900080919F019091A0014AE00E94310285E17B
:100DA00091E00E94240280919D0190919E01A0916A
:100DB0009F01B091A001893632E49307A105B105E6
:100DC00098F183E70E94750210919C01612F83E0E6
:100DD0000E94B3018BE999E00197F1F761E0612787
:100DE00083E00E94B30180919D0190919E018856FD
:100DF0009244801B91098230910538F0880F991F29
:100E0000880F991F05970197F1F780E090E0892BF3
:100E100009F472CE0E941001882309F464CE0E9466
:100E2000000061CE00E0ACCF0297A105B10520F132
:100E300087E60E94750280919D0190919E01A0918C
:100E40009F01B091A001801B9109A109B1098230D5
:100E5000910538F0880F991F880F991F0597019702
:100E6000F1F710919C01612F83E00E94B30181E0B2
:100E7000182710939C01C9CF88E70E947502C5CF3F
:100E8000D8018D938D01EA16FB0609F049CE85CE77
:100E9000E89409C097FB3EF4909580957095619514
:100EA0007F4F8F4F9F4F9923A9F0F92F96E9BB27CA
:100EB0009395F695879577956795B795F111F8CF46
:100EC000FAF4BB0F11F460FF1BC06F5F7F4F8F4FB1
:100ED0009F4F16C0882311F096E911C0772321F0A7
:100EE0009EE8872F762F05C0662371F096E8862F3F
:100EF00070E060E02AF09A95660F771F881FDAF796
:100F0000880F9695879597F908950E9498070C94F5
:100F100009080E94FB0738F00E94020820F0952380
:100F200011F00C94F2070C94F80711240C943D086E
:100F30000E941A0870F3959FC1F3950F50E0551F5A
:100F4000629FF001729FBB27F00DB11D639FAA271E
:100F5000F00DB11DAA1F649F6627B00DA11D661F6D
:100F6000829F2227B00DA11D621F739FB00DA11D8E
:100F7000621F839FA00D611D221F749F3327A00D48
:100F8000611D231F849F600D211D822F762F6A2FE4
:100F900011249F5750409AF0F1F088234AF0EE0F49
:100FA000FF1FBB1F661F771F881F91505040A9F776
:100FB0009E3F510580F00C94F2070C943D085F3F72
:100FC000E4F3983ED4F3869577956795B795F795B2
:100FD000E7959F5FC1F7FE2B880F911D969587952A
:100FE00097F9089597F99F6780E870E060E00895A9
:100FF0009FEF80EC089500240A9416161706180631
:101000000906089500240A9412161306140605060C
:101010000895092E0394000C11F4882352F0BB0F9D
:1010200040F4BF2B11F460FF04C06F5F7F4F8F4F00
:101030009F4F089557FD9058440F551F59F05F3F3B
:1010400071F04795880F97FB991F61F09F3F79F0EA
:1010500087950895121613061406551FF2CF46956C
:10106000F1DF08C0161617061806991FF1CF8695EE
:101070007105610508940895E894BB2766277727D2
:10108000CB0197F90895052E97FB1EF400940E945A
:101090005A0857FD07D00E94750807FC03D04EF48C
:1010A0000C945A0850954095309521953F4F4F4FDD
:1010B0005F4F089590958095709561957F4F8F4F04
:1010C0009F4F08950E949708A59F900DB49F900D83
:1010D000A49F800D911D11240895B7FF0C94620800
:1010E0000E946208821B930B0895A1E21A2EAA1B8C
:1010F000BB1BFD010DC0AA1FBB1FEE1FFF1FA217C8
:10110000B307E407F50720F0A21BB30BE40BF50BC4
:10111000661F771F881F991F1A9469F7609570954D
:10112000809590959B01AC01BD01CF010895A29FD0
:10113000B001B39FC001A39F700D811D1124911DAB
:10114000B29F700D811D1124911D08955058BB2729
:10115000AA270E94BE080C9409080E94FB0738F0D9
:101160000E94020820F039F49F3F19F426F40C94F1
:10117000F8070EF4E095E7FB0C94F207E92F0E94C4
:101180001A0858F3BA17620773078407950720F007
:1011900079F4A6F50C943C080EF4E0950B2EBA2FCA
:1011A000A02D0B01B90190010C01CA01A00111246D
:1011B000FF27591B99F0593F50F4503E68F11A1619
:1011C000F040A22F232F342F4427585FF3CF4695AA
:1011D00037952795A795F0405395C9F77EF41F16CC
:1011E000BA0B620B730B840BBAF09150A1F0FF0F96
:1011F000BB1F661F771F881FC2F70EC0BA0F621F82
:10120000731F841F48F4879577956795B795F79571
:101210009E3F08F0B0CF9395880F08F09927EE0F06
:101220009795879508950E941A096894B1110C94B6
:101230003D0808950E94220888F09F5798F0B92F22
:101240009927B751B0F0E1F0660F771F881F991FFB
:101250001AF0BA95C9F714C0B13091F00E943C0859
:10126000B1E008950C943C08672F782F8827B85F69
:1012700039F0B93FCCF3869577956795B395D9F753
:101280003EF490958095709561957F4F8F4F9F4F5D
:101290000895991B79E004C0991F961708F0961BD2
:1012A000881F7A95C9F780950895EE0FFF1F059066
:1012B000F491E02D0994F894FFCF5A004500000006
:1012C000004601A600D30093010401E200F6000DE0
:1012D0000A0053656E6420436F6D6D616E64732008
:1012E0002100656E636F6465645F76616C75653A55
:1012F0002000202D207370656564206465636F6431
:1013000065723A2000202D206973466972696E6704
:10131000202000202D20617A696D757468202000DE
:1013200052657475726E696E67206D617070656468
:101330003A20002046524F4D200074696D65724975
:0C1340006E74657276616C5573200000BD
:107E0000112484B714BE81FFF0D085E080938100F7
:107E100082E08093C00088E18093C10086E0809377
:107E2000C20080E18093C4008EE0C9D0259A86E02C
:107E300020E33CEF91E0309385002093840096BBD3
:107E4000B09BFECF1D9AA8958150A9F7CC24DD24C4
:107E500088248394B5E0AB2EA1E19A2EF3E0BF2EE7
:107E6000A2D0813461F49FD0082FAFD0023811F036
:107E7000013811F484E001C083E08DD089C08234E0
:107E800011F484E103C0853419F485E0A6D080C0E4
:107E9000853579F488D0E82EFF2485D0082F10E0AE
:107EA000102F00270E291F29000F111F8ED06801E7
:107EB0006FC0863521F484E090D080E0DECF843638
:107EC00009F040C070D06FD0082F6DD080E0C81688
:107ED00080E7D80618F4F601B7BEE895C0E0D1E017
:107EE00062D089930C17E1F7F0E0CF16F0E7DF06D8
:107EF00018F0F601B7BEE89568D007B600FCFDCFD4
:107F0000A601A0E0B1E02C9130E011968C91119780
:107F100090E0982F8827822B932B1296FA010C0160
:107F200087BEE89511244E5F5F4FF1E0A038BF0790
:107F300051F7F601A7BEE89507B600FCFDCF97BE46
:107F4000E89526C08437B1F42ED02DD0F82E2BD052
:107F50003CD0F601EF2C8F010F5F1F4F84911BD097
:107F6000EA94F801C1F70894C11CD11CFA94CF0C13
:107F7000D11C0EC0853739F428D08EE10CD085E9AC
:107F80000AD08FE07ACF813511F488E018D01DD067
:107F900080E101D065CF982F8091C00085FFFCCF94
:107FA0009093C60008958091C00087FFFCCF809118
:107FB000C00084FD01C0A8958091C6000895E0E648
:107FC000F0E098E1908380830895EDDF803219F02E
:107FD00088E0F5DFFFCF84E1DECF1F93182FE3DFCA
:107FE0001150E9F7F2DF1F91089580E0E8DFEE27F6
:047FF000FF270994CA
:027FFE00040479
:00000001FF
