:100000000C945D000C9485000C9485000C94850084
:100010000C9485000C9485000C9485000C9485004C
:100020000C9485000C9485000C9485000C94380386
:100030000C9485000C9485000C9485000C9485002C
:100040000C94EE020C9485000C94BC020C94960265
:100050000C9485000C9485000C9485000C9485000C
:100060000C9485000C94850000000008000201003B
:100070000003040700000000000000000000000072
:10008000250028002B0000000000240027002A0083
:10009000040404040404040402020202020203032E
:1000A0000303030301020408102040800102040836
:1000B0001020010204081020F40311241FBECFEF0A
:1000C000D8E0DEBFCDBF11E0A0E0B1E0E8EEF0E1A6
:1000D00002C005900D92A633B107D9F722E0A6E33E
:1000E000B1E001C01D92AA30B207E1F710E0CDE502
:1000F000D0E004C02197FE010E946C08CC35D107E6
:10010000C9F70E9451040C9472080C94000090E00E
:10011000FC01EC55FF4F249180579F4FFC018491C7
:10012000882399F090E0880F991FFC01EA57FF4F50
:10013000A591B491FC01E458FF4F859194918FB73C
:10014000F894EC91E22BEC938FBF0895AF92BF929D
:10015000CF92DF92EF92FF920F931F93CF93DF9393
:100160006C017B018B01040F151FEB015E01AE18C2
:10017000BF08C017D10759F06991D601ED91FC91E4
:100180000190F081E02DC6010995892B79F7C50111
:10019000DF91CF911F910F91FF90EF90DF90CF9063
:1001A000BF90AF900895FC01538D448D252F30E012
:1001B000842F90E0821B930B541710F0CF96089574
:1001C00001970895FC01918D828D981761F0A28DA1
:1001D000AE0FBF2FB11D5D968C91928D9F5F9F7367
:1001E000928F90E008958FEF9FEF0895FC01918D1D
:1001F000828D981731F0828DE80FF11D858D90E08A
:1002000008958FEF9FEF0895FC01918D228D892F26
:1002100090E0805C9F4F821B91098F73992708950E
:1002200085E491E00E94040121E0892B09F420E09B
:10023000822F089580E090E0892B29F00E94100120
:1002400081110C9400000895FC01A48DA80FB92F12
:10025000B11DA35ABF4F2C91848D90E001968F73EE
:100260009927848FA689B7892C93A089B1898C910D
:10027000837080648C93938D848D981306C002885C
:10028000F389E02D80818F7D80830895EF92FF9226
:100290000F931F93CF93DF93EC0181E0888F9B8DA9
:1002A0008C8D98131AC0E889F989808185FF15C063
:1002B0009FB7F894EE89FF896083E889F989808186
:1002C0008370806480839FBF81E090E0DF91CF9155
:1002D0001F910F91FF90EF900895F62E0B8D10E077
:1002E0000F5F1F4F0F731127E02E8C8D8E110CC0E6
:1002F0000FB607FCFACFE889F989808185FFF5CF31
:10030000CE010E942401F1CFEB8DEC0FFD2FF11DEA
:10031000E35AFF4FF0829FB7F8940B8FEA89FB896D
:1003200080818062CFCFCF93DF93EC01888D8823CB
:10033000B9F0AA89BB89E889F9898C9185FD03C048
:10034000808186FD0DC00FB607FCF7CF8C9185FF2D
:10035000F2CF808185FFEDCFCE010E942401E9CF4D
:10036000DF91CF91089590E0FC01E859FF4F24916F
:10037000FC01EC55FF4F3491FC01E057FF4FE49135
:10038000EE23C9F0222339F0233001F1A8F4213003
:1003900019F1223029F1F0E0EE0FFF1FE458FF4F72
:1003A000A591B4918FB7F894EC91611126C0309566
:1003B0003E233C938FBF08952730A9F02830C9F021
:1003C000243049F7809180008F7D03C080918000A8
:1003D0008F7780938000DFCF84B58F7784BDDBCFAC
:1003E00084B58F7DFBCF8091B0008F778093B00074
:1003F000D2CF8091B0008F7DF9CF3E2BDACF3FB7BF
:10040000F89480913C0190913D01A0913E01B09102
:100410003F0126B5A89B05C02F3F19F00196A11DED
:10042000B11D3FBFBA2FA92F982F8827BC01CD013E
:10043000620F711D811D911D42E0660F771F881F9D
:10044000991F4A95D1F70895FC0101900020E9F722
:100450003197AF01481B590BBC0185E491E00C9426
:10046000A6008F929F92AF92BF920F931F93CF934C
:10047000DF93CDB7DEB7A1970FB6F894DEBF0FBEFE
:10048000CDBF19A2423008F44AE08E010F5D1F4F24
:10049000842E912CB12CA12CA50194010E949106CF
:1004A000E62FB901CA01EA30F4F4E05DD801EE9319
:1004B0008D01232B242B252B79F790E080E01097DA
:1004C00019F0CD010E942402A1960FB6F894DEBF68
:1004D0000FBECDBFDF91CF911F910F91BF90AF9015
:1004E0009F908F900895E95CE1CFCF92DF92EF92D9
:1004F000FF92CF93DF936B017C016DE285E491E085
:100500000E944601EC0166277727CB016C197D0913
:100510008E099F094AE00E9431028C0F9D1FDF91D6
:10052000CF91FF90EF90DF90CF9008951F920F92A0
:100530000FB60F9211242F933F934F935F936F93B6
:100540007F938F939F93AF93BF93EF93FF9385E434
:1005500091E00E942401FF91EF91BF91AF919F9193
:100560008F917F916F915F914F913F912F910F905C
:100570000FBE0F901F9018951F920F920FB60F92FB
:1005800011242F938F939F93EF93FF93E091550145
:10059000F09156018081E0915B01F0915C0182FD58
:1005A0001BC0908180915E018F5F8F7320915F01EE
:1005B000821741F0E0915E01F0E0EB5BFE4F958F1A
:1005C00080935E01FF91EF919F918F912F910F90FA
:1005D0000FBE0F901F9018958081F4CF1F920F923D
:1005E0000FB60F9211242F933F938F939F93AF9346
:1005F000BF938091380190913901A0913A01B09157
:100600003B013091370123E0230F2D3758F5019638
:10061000A11DB11D209337018093380190933901BA
:10062000A0933A01B0933B0180913C0190913D0130
:10063000A0913E01B0913F010196A11DB11D809393
:100640003C0190933D01A0933E01B0933F01BF91C7
:10065000AF919F918F913F912F910F900FBE0F906F
:100660001F90189526E8230F0296A11DB11DD2CF29
:100670001F920F920FB60F9211242F933F934F9317
:100680005F936F937F938F939F93AF93BF93CF931A
:10069000DF93EF93FF9380913601C0910602D0E083
:1006A00087FF24C01092850010928400809136014B
:1006B0008F5F8093360180913601082E000C990BD4
:1006C0008C179D0724F4809136018C30C4F1809101
:1006D000840090918500049680349C4908F47AC087
:1006E0008091840090918500049676C080913601B7
:1006F000082E000C990B8C179D07C4F6E09136016B
:100700008E2FEE0F990BFC01EE0FFF1FE80FF91F64
:10071000EE51FE4F808186FFC9CFE09136018E2FCA
:10072000EE0F990BFC01EE0FFF1FE80FF91FEE51C2
:10073000FE4F808160E08F730E94B301B7CF20919C
:10074000840030918500E09136018E2FEE0F990BD9
:10075000FC01EE0FFF1FE80FF91FEE51FE4F8181E4
:100760009281820F931F9093890080938800E0917B
:1007700036018E2FEE0F990BFC01EE0FFF1FE80FD5
:10078000F91FEE51FE4F808186FF11C0E0913601C6
:100790008E2FEE0F990BFC01EE0FFF1FE80FF91FD4
:1007A000EE51FE4F808161E08F730E94B301FF9193
:1007B000EF91DF91CF91BF91AF919F918F917F91F9
:1007C0006F915F914F913F912F910F900FBE0F90BE
:1007D0001F90189580E49CE990938900809388008D
:1007E0008FEF80933601E3CF1092480110924701BA
:1007F00088EE93E0A0E0B0E08093490190934A0135
:10080000A0934B01B0934C0185E091E09093460199
:100810008093450185EC90E09093520180935101C3
:1008200084EC90E0909354018093530180EC90E02D
:10083000909356018093550181EC90E0909358017C
:100840008093570182EC90E090935A018093590174
:1008500086EC90E090935C0180935B0110925E01C6
:1008600010925F0110926001109261018091060266
:100870008C3098F491E0980F9093060280930702D1
:1008800090E0FC01EE0FFF1FE80FF91FEE51FE4F45
:1008900088EB9BE09283818308958FEF809307021A
:1008A0000895CF93DF9300D000D000D0CDB7DEB74E
:1008B000789484B5826084BD84B5816084BD85B53B
:1008C000826085BD85B5816085BD80916E00816047
:1008D00080936E00109281008091810082608093ED
:1008E00081008091810081608093810080918000EF
:1008F0008160809380008091B10084608093B1001A
:100900008091B00081608093B00080917A00846013
:1009100080937A0080917A00826080937A0080913F
:100920007A00816080937A0080917A008068809359
:100930007A001092C100E0915501F091560182E0D9
:100940008083E0915101F09152011082E0915301B6
:10095000F09154018FEC808310925D01E091590178
:10096000F0915A0186E08083E0915701F09158019F
:10097000808180618083E0915701F09158018081EE
:1009800088608083E0915701F091580180818068F0
:100990008083E0915701F091580180818F7D8083A1
:1009A00083E00E94870082E00E9487008091070216
:1009B0008C3008F052C089E00E94870080910702C5
:1009C000282F30E0F901EE0FFF1FE20FF31FEE5169
:1009D000FE4F9081907C9960908392EF90930802F3
:1009E00099E1909309022CE0622F0E946008829F97
:1009F000B001112430E020E0AB01420F531FFA0197
:100A0000EE0FFF1FE40FF51FEE51FE4F908196FD94
:100A100016C02F5F3F4F2C30310571F781110FC089
:100A20001092800082E080938100109285001092E5
:100A30008400B19A80916F00826080936F00E09192
:100A400007028E2F90E0FC01EE0FFF1FE80FF91F49
:100A5000EE51FE4F80818064808383E191E00E94AB
:100A6000240283E291E00E94240285E491E00E9446
:100A7000040120E0181619060CF0E7C086E291E0A8
:100A80000E94240283E291E00E9424020E94FF015E
:100A90004B015C0185E491E00E94E2009A83898326
:100AA000881F8827881F8C8309811A81007F11275E
:100AB0002801012E000C660877084AE0C301B20144
:100AC0000E94310283E291E00E94240229812F706A
:100AD000622F70E090E080E00E94670720E030E045
:100AE00048EC54EC0E94F30720E030ED44E856E473
:100AF0000E94C3060E942F076B011B014AE0C3013D
:100B0000B2010E94310283E291E00E9424023091FE
:100B100007023B833C3008F063C08091090228E55E
:100B200032E0281B310987FD3395220F331F220F36
:100B3000331F3A8329838091080228E830E0281B7C
:100B4000310987FD3395220F331F220F331F3E8358
:100B50002D832901330F66087708D801053B11055D
:100B600014F0A4EBB0E089819A819C01990F440BA9
:100B7000550B24193509460957090E94890624EBAB
:100B800030E040E050E00E945F06420E531E641EBB
:100B9000751E2D813E81421653064CF029813A8103
:100BA0003E832D834216530614F45E824D828D815E
:100BB0009E810297880F991F9A8389834FB7F89473
:100BC0002B81822F90E09C01220F331F820F931FF5
:100BD000FC01EE51FE4F89819A81928381834FBF40
:100BE0009C8161E0911101C060E082E00E94B3014C
:100BF00028EEC21A23E0D20A30E8C3163EE3D30639
:100C000010F0312C212CC101330CAA0BBB0B8093AB
:100C1000410190934201A0934301B0934401C090DD
:100C20000001D12CF12CE12C0E94FF01C818D90839
:100C3000EA08FB08C60ED71EE81EF91EF694E794D4
:100C4000D794C794C092000121E080914101909116
:100C50004201A0914301B091440182309105A10568
:100C6000B105F0F0222349F120910001821B910986
:100C7000A109B1098230910538F0880F991F880FBA
:100C8000991F05970197F1F7809140018983682F9B
:100C900083E00E94B301998121E092279093400163
:100CA00080E090E0892B09F4E0CE0E9410018823B7
:100CB00009F4DBCE0E940000D8CE20E0D7CF052E6D
:100CC00097FB1EF400940E94760657FD07D00E9401
:100CD000910607FC03D04EF40C947606509540958F
:100CE000309521953F4F4F4F5F4F089590958095D8
:100CF000709561957F4F8F4F9F4F08950E94B30667
:100D0000A59F900DB49F900DA49F800D911D11245F
:100D10000895B7FF0C947E060E947E06821B930BFB
:100D20000895A1E21A2EAA1BBB1BFD010DC0AA1F2C
:100D3000BB1FEE1FFF1FA217B307E407F50720F044
:100D4000A21BB30BE40BF50B661F771F881F991FBF
:100D50001A9469F760957095809590959B01AC0108
:100D6000BD01CF010895A29FB001B39FC001A39F11
:100D7000700D811D1124911DB29F700D811D1124D4
:100D8000911D08955058BB27AA270E94DA060C949B
:100D9000B9070E94AB0738F00E94B20720F039F47F
:100DA0009F3F19F426F40C94A8070EF4E095E7FB96
:100DB0000C94A207E92F0E94CA0758F3BA176207DA
:100DC00073078407950720F079F4A6F50C94EC07D7
:100DD0000EF4E0950B2EBA2FA02D0B01B901900156
:100DE0000C01CA01A0011124FF27591B99F0593F9A
:100DF00050F4503E68F11A16F040A22F232F342FE2
:100E00004427585FF3CF469537952795A795F0402F
:100E10005395C9F77EF41F16BA0B620B730B840B44
:100E2000BAF09150A1F0FF0FBB1F661F771F881FFC
:100E3000C2F70EC0BA0F621F731F841F48F4879554
:100E400077956795B795F7959E3F08F0B0CF939546
:100E5000880F08F09927EE0F9795879508950E94BF
:100E600036076894B1110C94ED0708950E94D207DB
:100E700088F09F5798F0B92F9927B751B0F0E1F05B
:100E8000660F771F881F991F1AF0BA95C9F714C00B
:100E9000B13091F00E94EC07B1E008950C94EC079A
:100EA000672F782F8827B85F39F0B93FCCF3869544
:100EB00077956795B395D9F73EF4909580957095A1
:100EC00061957F4F8F4F9F4F0895E89409C097FB1E
:100ED0003EF490958095709561957F4F8F4F9F4F11
:100EE0009923A9F0F92F96E9BB279395F695879555
:100EF00077956795B795F111F8CFFAF4BB0F11F418
:100F000060FF1BC06F5F7F4F8F4F9F4F16C08823BE
:100F100011F096E911C0772321F09EE8872F762FF4
:100F200005C0662371F096E8862F70E060E02AF035
:100F30009A95660F771F881FDAF7880F9695879521
:100F400097F9089597F99F6780E870E060E0089549
:100F50009FEF80EC089500240A94161617061806D1
:100F60000906089500240A941216130614060506AD
:100F70000895092E0394000C11F4882352F0BB0F3E
:100F800040F4BF2B11F460FF04C06F5F7F4F8F4FA1
:100F90009F4F089557FD9058440F551F59F05F3FDC
:100FA00071F04795880F97FB991F61F09F3F79F08B
:100FB00087950895121613061406551FF2CF46950D
:100FC000F1DF08C0161617061806991FF1CF86958F
:100FD0007105610508940895E894BB276627772773
:100FE000CB0197F908950E9406080C94B9070E9456
:100FF000AB0738F00E94B20720F0952311F00C9453
:10100000A2070C94A80711240C94ED070E94CA07AC
:1010100070F3959FC1F3950F50E0551F629FF0014B
:10102000729FBB27F00DB11D639FAA27F00DB11D64
:10103000AA1F649F6627B00DA11D661F829F2227ED
:10104000B00DA11D621F739FB00DA11D621F839F74
:10105000A00D611D221F749F3327A00D611D231F4A
:10106000849F600D211D822F762F6A2F11249F5798
:1010700050409AF0F1F088234AF0EE0FFF1FBB1F9B
:10108000661F771F881F91505040A9F79E3F51055A
:1010900080F00C94A2070C94ED075F3FE4F3983EB8
:1010A000D4F3869577956795B795F795E7959F5F04
:1010B000C1F7FE2B880F911D9695879597F9089596
:1010C000991B79E004C0991F961708F0961B881F9A
:1010D0007A95C9F780950895EE0FFF1F0590F4915A
:0810E000E02D0994F894FFCF04
:1010E80045000000004601A600D30093010401E278
:1010F80000F60053656E6420436F6D6D616E647316
:101108002021000D0A0052454144494E47205365AD
:061118007269616C000029
:00000001FF
