:100000000C9475000C949D000C949D000C949D0024
:100010000C949D000C949D000C949D000C949D00EC
:100020000C949D000C949D000C949D000C949D00DC
:100030000C949D000C94D00B0C949D000C949D008E
:100040000C942E0B0C949D000C949E0B0C94780B2E
:100050000C949D000C949D000C949D000C949D00AC
:100060000C949D000C949D00000020410000C842AB
:1000700000401C4620BCBE4CCA1B0E5AAEC59D7427
:10008000CDCCCC3D0AD7233C17B7D13877CC2B3217
:100090009595E6241FB14F0A0000000800020100F8
:1000A0000003040700000000000000000000000042
:1000B000250028002B0000000000240027002A0053
:1000C00004040404040404040202020202020303FE
:1000D0000303030301020408102040800102040806
:1000E0001020010204081020020D11241FBECFEFC2
:1000F000D8E0DEBFCDBF22E0AAEAB1E001C01D9288
:10010000AF35B207E1F711E0A0E0B1E0E4EEF2E2D2
:1001100002C005900D92AA3AB107D9F710E0C5E7E1
:10012000D0E004C02197FE010E94780FC437D107A8
:10013000C9F70E94F70B0C9470110C94000090E02A
:10014000FC01EC52FF4F249180549F4FFC0184919D
:10015000882399F090E0880F991FFC01EA54FF4F23
:10016000A591B491FC01E455FF4F859194918FB70F
:10017000F894EC91E22BEC938FBF0895EAE9F0E05C
:100180002491E6EDF0E09491E2ECF0E0E491EE23CE
:10019000C9F0222339F0233001F1A8F4213019F1FC
:1001A000223029F1F0E0EE0FFF1FE455FF4FA5913B
:1001B000B4912FB7F894EC91811126C090959E23AD
:1001C0009C932FBF08952730A9F02830C9F0243020
:1001D00049F7209180002F7D03C0209180002F7768
:1001E00020938000DFCF24B52F7724BDDBCF24B54B
:1001F0002F7DFBCF2091B0002F772093B000D2CF7E
:100200002091B0002F7DF9CF9E2BDACF089508956D
:10021000AF92BF92CF92DF92EF92FF920F931F9314
:10022000CF93DF936C017B018B01040F151FEB0152
:100230005E01AE18BF08C017D10759F06991D60109
:10024000ED91FC910190F081E02DC6010995892B7B
:1002500079F7C501DF91CF911F910F91FF90EF903A
:10026000DF90CF90BF90AF900895FC01538D448DE7
:10027000252F30E0842F90E0821B930B541710F051
:10028000CF96089501970895FC01918D828D98175E
:1002900061F0A28DAE0FBF2FB11D5D968C91928D36
:1002A0009F5F9F73928F90E008958FEF9FEF089567
:1002B0002FB7F8948091BA019091BB01A091BC0135
:1002C000B091BD012FBF8093C6019093C701A09349
:1002D000C801B093C9018EEB91E00E94440197FFE1
:1002E00026C02FB7F8948091BA019091BB01A091DC
:1002F000BC01B091BD012FBF4091C6015091C70113
:100300006091C8017091C901841B950BA60BB70BB6
:100310004091C2015091C3016091C4017091C50127
:1003200084179507A607B707B0F28FEF9FEF0895E0
:10033000FC01918D828D981731F0828DE80FF11DAF
:10034000858D90E008958FEF9FEF0895FC01918DCA
:10035000228D892F90E0805C9F4F821B91098F73C3
:10036000992708958EEB91E00E94A60121E0892B48
:1003700009F420E0822F089580E090E0892B29F095
:100380000E94B20181110C9400000895FC01A48D1B
:10039000A80FB92FB11DA35ABF4F2C91848D90E0A7
:1003A00001968F739927848FA689B7892C93A0898A
:1003B000B1898C91837080648C93938D848D981314
:1003C00006C00288F389E02D80818F7D80830895A7
:1003D000EF92FF920F931F93CF93DF93EC0181E095
:1003E000888F9B8D8C8D98131AC0E889F98980813C
:1003F00085FF15C09FB7F894EE89FF896083E8896F
:10040000F98980818370806480839FBF81E090E060
:10041000DF91CF911F910F91FF90EF900895F62EED
:100420000B8D10E00F5F1F4F0F731127E02E8C8D87
:100430008E110CC00FB607FCFACFE889F9898081CC
:1004400085FFF5CFCE010E94C601F1CFEB8DEC0FF9
:10045000FD2FF11DE35AFF4FF0829FB7F8940B8FE9
:10046000EA89FB8980818062CFCFCF93DF93EC0153
:10047000888D8823B9F0AA89BB89E889F9898C918C
:1004800085FD03C0808186FD0DC00FB607FCF7CF48
:100490008C9185FFF2CF808185FFEDCFCE010E9448
:1004A000C601E9CFDF91CF910895982F80336CF08A
:1004B0008A3324F08F3524F08B3724F481E00895BB
:1004C00081341CF081E09B350CF080E00895FC0144
:1004D0008685811114C0A185B285838594852FEF0F
:1004E0003FEFA817B90730F4CD01019692878187B5
:1004F0002C9130E037FD20E0258781E086878585D7
:1005000008951F93CF93DF93EC01162F0E9467028B
:10051000811306C01E8681E0DF91CF911F9108955F
:1005200080E0FACF0F931F93CF93DF938C01EB0101
:100530008991882369F0C8010E946702882379F0B5
:10054000FE013197908198130DC0F8011686F0CF07
:1005500090E080E0DF91CF911F910F91089582E0AC
:1005600090E0F8CF83E090E0F5CFCF93DF93EC01FC
:10057000CE010E9467028B304CF489305CF48823F2
:1005800059F081E0888790E080E00BC08D3011F059
:100590008032B9F71E86ECCF8885811105C081E0D5
:1005A00090E0DF91CF91089582E090E0FACFFC01D6
:1005B00024813581A9014F5F5F4F8681978148175C
:1005C000590748F48281938155834483FC01E20FEB
:1005D000F31F608308950190F081E02D81E0808712
:1005E00008959F92AF92BF92CF92DF92EF92FF92C7
:1005F0000F931F93CF93DF9300D000D01F92CDB7FE
:10060000DEB78C010E946702D82ED8011E961C927C
:10061000F12CE12C60EFC62EC8010E946702F801A0
:100620001686D81609F4B4C0811113C082E090E098
:100630000F900F900F900F900F90DF91CF911F911F
:100640000F91FF90EF90DF90CF90BF90AF909F9071
:1006500008958C3509F09AC0C8010E94670288236A
:1006600029F3ECE1F1E0853709F084C0D8011E964A
:100670001C9254E0952EB12CA12CC8010E94670257
:100680008823A1F2813434F48053803130F083E048
:1006900090E0CECF8F7D8753F8CF44E0AA0CBB1CEF
:1006A0004A95E1F7A82AF80116869A949110E5CFA9
:1006B000C501985D8115944020F47501F3E0FF2297
:1006C000ABCFC5019C5D81159440A8F483E0B822AE
:1006D000B701762F6627770F770F6A297B2990E07D
:1006E00080E00196603871058105910540F4C801EC
:1006F0000E94D70291CFB50190E080E0F3CF19823C
:10070000262F2F7320682A8326E096958795779564
:1007100067952A95D1F76032710580F4606C6B8320
:100720005E01A4E0AA0EB11CD5016E915D016623A5
:1007300009F472CFC8010E94D702F6CF262F2F737B
:1007400020682B8386E0769567958A95E1F760317E
:10075000710538F4606E6C835E01B5E0AB0EB11CC0
:10076000E3CF60686C83CD825E01E6E0AE0EB11C23
:10077000DBCF32969081992309F489CF8913F9CF81
:100780008181882309F483CFF8011686682FAFCFC3
:100790000190F081E02D8085882319F084E090E0BD
:1007A00047CF90E080E044CF4F925F926F927F926C
:1007B0008F929F92AF92BF92CF92DF92EF92FF9271
:1007C0000F931F93CF93DF93EC018B0188818B32C2
:1007D000C9F18D32C1F52196FF24F394888190ED03
:1007E000980F9A3018F08E3209F04DC160E070E039
:1007F000CB01FE012191A0ED8A2E820E39E0381541
:1008000020F16A3949E97407840749E1940738F50A
:10081000AAE0B0E09B01AC010E94530E912CB12CD8
:10082000A12C240135014094509460947094461694
:1008300057066806790698F0680D791D8A1D9B1D7C
:10084000EF01D7CF2196F12CC9CF211108C0FF208D
:10085000F1F161307105810550E89507A0F0E12CB8
:10086000EAE08E2E912CA12CB12C61157105F0E8D7
:100870008F079105C0F1A50194010E94560FCA018E
:10088000B901E394F2CFF801248120782A6024830F
:100890009B01AC0188279927DC01821B930BA40BD9
:1008A000B50B80839183A283B3838F2DDF91CF918A
:1008B0001F910F91FF90EF90DF90CF90BF90AF907E
:1008C0009F908F907F906F905F904F900895F80168
:1008D00024812078286024836083718382839383BA
:1008E000FF24F394E2CFFE01299130ED320F3A302C
:1008F00010F4E394F8CF2E32F1F4EF012196FE01CB
:100900002196208150EDD52ED20E29E02D1598F09C
:100910006C3C3CEC73073CE08307910580F7AAE050
:10092000B0E09B01AC010E94530E6D0D711D811D45
:10093000911DEA94E4CF20812F7DD0E0C0E02534E2
:1009400009F05DC021812D32D9F53296CC24C394B3
:10095000DF01D0E0C0E02E2D0E2C000C330B4AE05E
:10096000B42EFD01DD9040ED4D0D4A3008F042C03F
:10097000BC9EA001BD9E500D1124CD2DDD0CDD0BC4
:10098000E097C40FD51FAE01420F531F47325105E8
:1009900044F3F8018481CC20D1F040E050E060E0E5
:1009A00070E8F11003C040E050E0BA0180788C603C
:1009B000F80184834083518362837383FC2C75CF59
:1009C0002B3219F03196C12CC3CF3296FCCF40E0C8
:1009D00050E060E87FEFF11004C040E050E060E8D4
:1009E0007FE780788C60F801848340835183628341
:1009F000738376CFCC2019F0D195C195D109208190
:100A0000211141C0CE0DD11DE7FCDA950E94340DB5
:100A10001C161D0604F5E12CC0FF0CC024E0E29E6C
:100A2000F0011124E859FF4F2591359145915491DA
:100A30000E94950DD595C795E394209769F7F1101D
:100A40009058F801248120782C602483608371837E
:100A50008283938345CFD195C195D109E12C20970D
:100A600071F3C0FF0CC044E0E49EF0011124E05893
:100A7000FF4F25913591459154910E94950DD59543
:100A8000C795E394ECCFF12C10CFCF92DF92EF9289
:100A9000FF92CF93DF9300D000D01F92CDB7DEB787
:100AA000FC0184818F778630B1F020F4843000F52A
:100AB00080E012C08A3021F08C3039F18830C1F7E3
:100AC00080819181A281B3818F3F9105A105B105FC
:100AD00019F010F0EDCF80810F900F900F900F90D4
:100AE0000F90DF91CF91FF90EF90DF90CF9008951E
:100AF000808191811D82BE016F5F7F4F0E94D40370
:100B0000CE0101960E944505E7CFC080D180E280EA
:100B1000F38020E030E0A901C701B6010E94450F33
:100B200087FDC6CF20E030E04FE753E4C701B601B0
:100B30000E942F0D18160CF4BBCFC701B6010E94FE
:100B4000160F862FC9CFCF93DF93DC01EB01EC8129
:100B5000FD818A819B810896E817F90740F481E0BE
:100B60008887F0E0E0E0CF01DF91CF9108953897DA
:100B7000FD83EC833097B9F31296CD91DC911397F6
:100B8000209791F0CF018C1B9D0B23E095958795C5
:100B90002A95E1F78D831396FC93EE9312971582B5
:100BA000148217821682DFCF1196FC93EE93F3CF57
:100BB000EF92FF920F931F93CF93DF937C01DC01A1
:100BC00012962D913C911397ED91FC91AB01420F40
:100BD000531FEF01C60FD71FC217D307A0F4888198
:100BE00081110BC0E901CF014C175D0751F009914C
:100BF000DC011D91CD010117B9F381918111FDCF68
:100C0000E8CF309751F4620F731FCB010196F701C3
:100C100093838283DB011C92F901CF01DF91CF9195
:100C20001F910F91FF90EF900895FC01019000201B
:100C3000E9F73197AF01481B590BBC018EEB91E0EE
:100C40000C9408018F929F92AF92BF920F931F93C3
:100C5000CF93DF93CDB7DEB7A1970FB6F894DEBF81
:100C60000FBECDBF19A2423008F44AE08E010F5DDD
:100C70001F4F842E912CB12CA12CA50194010E9410
:100C8000560FE62FB901CA01EA30F4F4E05DD8014D
:100C9000EE938D01232B242B252B79F790E080E018
:100CA000109719F0CD010E941506A1960FB6F89481
:100CB000DEBF0FBECDBFDF91CF911F910F91BF90CF
:100CC000AF909F908F900895E95CE1CFCF93DF9331
:100CD00061157105A1F1DC018D919C91009789F15D
:100CE000EC01EE81FF81DB010D900020E9F7119707
:100CF000A61BB70B30E020E0309749F0EF010990D8
:100D00000020E9F79E01215031092E1B3F0B2A17C5
:100D10003B0751F4DB01260F371F2A173B0789F0E9
:100D20005D9141915417C9F3FC012581222339F0CB
:100D3000F8E02F0290011124820F931FCFCF90E093
:100D400080E0DF91CF9108959F92AF92BF92CF92B2
:100D5000DF92EF92FF920F931F93CF93DF93EC01FB
:100D60007B01D42E0E94B5028C01892B09F052C060
:100D7000CE010E946702863609F455C194F5873288
:100D800029F08B35D1F1823209F056C1E881F98121
:100D9000828193819B838A8384819581228133819F
:100DA000821B930B9F838E831D821C82892B11F4DF
:100DB00081E08087CE010E94F1028C01892B51F5E0
:100DC000AC80BD80B501888199810E94D805F7016A
:100DD000248120782560248391838083B382A2823A
:100DE00019C0843709F408C18B3709F453C08E3613
:100DF00009F022C168E371E008C1F70184818078BD
:100E0000806484831182108213821282D1100FC0F9
:100E100005E010E0C801DF91CF911F910F91FF9085
:100E2000EF90DF90CF90BF90AF909F9008951E8677
:100E3000CE010E94B502009709F02DC16DE5CE01EB
:100E40000E9481028111E6CFDA946F857889C7010B
:100E50000E94A305009709F46EC04D2DBC01CE0180
:100E60000E94A406009709F016C1CE010E94B502A7
:100E7000009709F010C16DE5CE010E948102811139
:100E8000C9CF6CE2CE010E9481028111DECF03E066
:100E900010E0C0CFF7018481807880628483118262
:100EA000108213821282DD2009F4B2CF1E86CE0199
:100EB0000E94B502009709F0EEC06DE7CE010E94D6
:100EC00081028111A7CFBB24B394DA94E881F98120
:100ED000828193819B838A8384819581228133815E
:100EE000821B930B9F838E831D821C82892B09F4A6
:100EF000B086CE010E946702873201F18232F1F0A2
:100F0000CE010E946702182F0E945502882309F41F
:100F1000BECF1E86612FCE010E94D702CE010E9455
:100F20006702182F0E9455028111F3CFE881F981E1
:100F30008085882351F004E010E06CCFCE010E9440
:100F4000F1028C01892B09F065CFCE010E94B50218
:100F50008C01892B09F05ECF6AE3CE010E948102E9
:100F6000882309F494CFEA81FB818C819D81E80F6D
:100F7000F91F10820C811D816A817B81C7010E944B
:100F80006606BC01892BA1F4B801888199810E9471
:100F9000D8058C016F857889C7010E94A305FC01E3
:100FA000892B49F284818068848317830683BF017B
:100FB0004D2DCE010E94A4068C01892B09F02ACF69
:100FC000CE010E94B5028C01892B09F023CF6DE779
:100FD000CE010E94810281111DCF6CE2CE010E94E0
:100FE0008102882309F453CFCE010E94B5028C01FF
:100FF000892B09F46BCF0ECFF7018481807886604E
:10100000848381E080836DE271E0CE01DF91CF9136
:101010001F910F91FF90EF90DF90CF90BF90AF9016
:101020009F900C949202F70184818078866084837B
:10103000108262E371E0E9CFCE010E9467025E0197
:10104000F1E1AF0EB11CD12C9A2CCB2C803374F073
:101050008A3374F49FE3D91699F01E86D394F50170
:1010600081935F01CE010E946702F0CF8B3291F332
:1010700093ED980F923070F3982F9F7D953451F334
:10108000CD0DD11D198AB701892D9C2D0E94D40345
:101090008111C0CEFCCE8C01BDCEFC01248125FF88
:1010A00004C0009711F00C94660690E080E008956B
:1010B0000F931F93CF93DF93EC0188819981009761
:1010C00059F02A813B812617370730F081E0DF9104
:1010D000CF911F910F9108958B016F5F7F4F0E94F9
:1010E000A310009759F0998388831B830A832C816E
:1010F0003D81232B59F7FC011082E8CF80E0E7CF38
:10110000EF92FF920F931F93CF93DF93CDB7DEB78C
:10111000C557D2400FB6F894DEBF0FBECDBFC05941
:10112000DD4F19821882C057D240CE58DD4F198248
:101130001882C257D240CC58DD4F19821882C4574A
:10114000D24070E060E0CE0180599D4F0E94580867
:10115000C059DD4F28813981C057D240811167C005
:101160002115310519F0C9010E941A10C059DD4F2F
:1011700019821882C057D240CC58DD4F198218828C
:10118000C457D240CE58DD4F19821882C257D24080
:101190008EEB91E00E94A6018E010F5F1F4F892BFD
:1011A00009F486C01A8219821C821B821E821D824B
:1011B00070E060E0C8010E94580829813A818111DD
:1011C00042C02115310519F0C9010E941A101A8276
:1011D00019821E821D821C821B820E94580197FD6B
:1011E0003AC08A309105B9F1C15FDD4F8883CF5095
:1011F000D240C05FDD4F1882C051D240ED80FE80EA
:101200002FEFE21AF20AB701C8010E94580888239A
:1012100021F329813A818D819E81BE01615F7D4FDD
:10122000820F931F0E946911FE82ED82D6CFCC58A7
:10123000DD4F19821882C457D2406CE271E0C901B7
:101240000E946911A5CF1E821D826CE271E0C90166
:101250000E946911C2CFC059DD4F88819981C05762
:10126000D240009709F40BC169817A81611571053B
:1012700009F403C1CE58DD4F48815981C257D2408D
:101280002D813E814217530708F4F7C00E9469116F
:101290008D819E81CC58DD4F99838883C457D2407D
:1012A0001E821D8289819A81009711F00E941A1076
:1012B000CE010F969A8389839C838B838FE092E083
:1012C0008C0F9D1F9E838D8398878F8319861E8622
:1012D000C059DD4F28813981C057D240CC58DD4FED
:1012E00088819981C457D240820F931FC859DD4F1E
:1012F00019830883C856D24048E0FE01E859FD4FE3
:10130000DE01A05ABD4F01900D924A95E1F748E0E9
:10131000FE01E05AFD4FDE01A15FBD4F01900D922D
:101320004A95E1F7C95EDD4F1882C751D240C85EC9
:10133000DD4F39832883C851D240C65EDD4F998383
:101340008883CA51D240C35EDD4F1882CD51D2404E
:10135000C25EDD4F19830883CE51D2404AE0BE0100
:10136000665F7F4FCE01815F9D4F0E94A406C059EA
:10137000DD4F88819981C057D240009711F00E94BB
:101380001A106DE371E0CE010A960E944D08892B78
:10139000E1F06DE371E0CE010A960E944D08FC0178
:1013A000892B09F4A5C094819F77983009F497C0E0
:1013B00008F082C0992309F49BC0963009F48BC0D1
:1013C00081E08093AF010E94BE0069E471E0CE012C
:1013D0000A960E944D08892B09F4AAC069E471E0BD
:1013E000CE010A960E944D08009709F485C00E941C
:1013F00045058093AE011092AA011092AB011092A4
:10140000AC011092AD016CE30E944A0F682F70E0AE
:1014100090E080E00E94360D9B01AC0160E070E03E
:1014200080E89FE30E94A40E20E030E04AE754E405
:101430000E94950D0E94160FAB01BC014093000164
:10144000509301016093020170930301DC01CA0112
:10145000E3E0880F991FAA1FBB1FEA95D1F70097F9
:1014600021E0A207B10508F049C021E02093B401B2
:101470009093B3018093B2014EC00E941A108981EB
:101480009A81C059DD4F99838883C057D2408B81A0
:101490009C81CE58DD4F99838883C257D2408D817D
:1014A0009E81CC58DD4F99838883C457D2401A82DD
:1014B00019821C821B82F4CE9A3089F09C3009F08C
:1014C0007FCF20E030E0A90160817181828193812A
:1014D0000E942F0D01C08081882351F071CF80813F
:1014E0009181A281B381892B8A2B8B2B09F068CF44
:1014F0001092AF0180E067CF80E07BCF009728E0BB
:10150000A207B10518F582E08093B4017F71509372
:10151000B3014093B2018091B2019091B3019093D5
:101520008700809386008091B40180618093810060
:10153000CB58DD4F0FB6F894DEBF0FBECDBFDF91A5
:10154000CF911F910F91FF90EF900895009720E4A5
:10155000A207B10558F423E02093B40146E0B69504
:10156000A795979587954A95D1F782CF0097A105C2
:1015700021E0B20740F424E02093B401892F9A2F90
:10158000AB2FBB2775CF0097A10524E0B20758F415
:1015900025E02093B4012AE0B695A7959795879505
:1015A0002A95D1F765CF85E08093B4018FEF9FEF47
:1015B0005FCF8DE491E00E9415066091AA017091C1
:1015C000AB018091AC019091AD014AE00E942206EE
:1015D0008FE691E00E9415068091AA019091AB01DF
:1015E000A091AC01B091AD010196A11DB11D8093F8
:1015F000AA019093AB01A093AC01B093AD0182E737
:1016000091E00E94150660910001709101018091A6
:101610000201909103014AE00E9422068FE691E0C8
:101620000E94150686E891E00E9415066091AF01C0
:1016300070E090E080E04AE00E94220682E991E0BA
:101640000E9415066091AE0170E090E080E04AE0F3
:101650000E9422068FE691E00C9415061F920F92CD
:101660000FB60F9211242F933F938F939F93AF93B5
:10167000BF938091BA019091BB01A091BC01B09140
:10168000BD013091B90123E0230F2D3758F50196A4
:10169000A11DB11D2093B9018093BA019093BB01A4
:1016A000A093BC01B093BD018091B5019091B601AA
:1016B000A091B701B091B8010196A11DB11D809311
:1016C000B5019093B601A093B701B093B801BF9153
:1016D000AF919F918F913F912F910F900FBE0F90DF
:1016E0001F90189526E8230F0296A11DB11DD2CF99
:1016F0001F920F920FB60F9211242F933F934F9387
:101700005F936F937F938F939F93AF93BF93EF9369
:10171000FF938EEB91E00E94C601FF91EF91BF9184
:10172000AF919F918F917F916F915F914F913F9179
:101730002F910F900FBE0F901F9018951F920F9230
:101740000FB60F9211242F938F939F93EF93FF93D4
:10175000E091CE01F091CF018081E091D401F09130
:10176000D50182FD1BC090818091D7018F5F8F735F
:101770002091D801821741F0E091D701F0E0E254C6
:10178000FE4F958F8093D701FF91EF919F918F919D
:101790002F910F900FBE0F901F9018958081F4CF5E
:1017A0001F920F920FB60F9211242F933F934F93D6
:1017B0005F936F937F938F939F93AF93BF93EF93B9
:1017C000FF93E091B001F091B1010995FF91EF9184
:1017D000BF91AF919F918F917F916F915F914F9149
:1017E0003F912F910F900FBE0F901F9018957894F6
:1017F00084B5826084BD84B5816084BD85B5826016
:1018000085BD85B5816085BD80916E0081608093C6
:101810006E0010928100809181008260809381002F
:10182000809181008160809381008091800081603F
:10183000809380008091B10084608093B10080919A
:10184000B00081608093B00080917A0084608093C2
:101850007A0080917A00826080937A0080917A0089
:10186000816080937A0080917A00806880937A000A
:101870001092C100E091CE01F091CF01C2E0C0838F
:10188000E091CA01F091CB011082E091CC01F0917E
:10189000CD018FEC80831092D601E091D201F091BE
:1018A000D30186E08083E091D001F091D101808165
:1018B00080618083E091D001F091D10180818860C6
:1018C0008083E091D001F091D10180818068808394
:1018D000E091D001F091D10180818F7D808383E000
:1018E0000E949F0082E00E949F008AE991E00E948E
:1018F00015068FE691E00E94150640910001509177
:101900000101609102017091030180E180938100E7
:1019100010928000DB01CA01E3E0880F991FAA1F23
:10192000BB1FEA95D1F7009721E0A207B10540F46B
:1019300021E02093B4019093B3018093B2010CC0D5
:10194000009728E0A207B10550F5C093B4017F715C
:101950005093B3014093B2018091B2019091B301D1
:1019600090938700809386008091B401806180937A
:10197000810089ED9AE09093B1018093B00181E0FC
:1019800080936F00C0E0D0E00E9480082097E1F3D0
:101990000E94B2018823C1F30E940000F5CF009796
:1019A00020E4A207B10558F423E02093B40146E0F7
:1019B000B695A795979587954A95D1F7BCCF00978F
:1019C000A10521E0B20740F424E02093B401892F5F
:1019D0009A2FAB2FBB27AFCF0097A10524E0B2070A
:1019E00058F425E02093B4012AE0B695A795979581
:1019F00087952A95D1F79FCF85E08093B4018FEF2B
:101A00009FEF99CFEEEBF1E01382128288EE93E024
:101A1000A0E0B0E084839583A683B7838EE091E055
:101A20009183808385EC90E09587848784EC90E0B7
:101A30009787868780EC90E0918B808B81EC90E09B
:101A4000938B828B82EC90E0958B848B86EC90E07C
:101A5000978B868B118E128E138E148E08950E9492
:101A6000710D08F481E00895E89409C097FB3EF4F5
:101A700090958095709561957F4F8F4F9F4F9923DB
:101A8000A9F0F92F96E9BB279395F6958795779559
:101A90006795B795F111F8CFFAF4BB0F11F460FF19
:101AA0001BC06F5F7F4F8F4F9F4F16C0882311F071
:101AB00096E911C0772321F09EE8872F762F05C085
:101AC000662371F096E8862F70E060E02AF09A9520
:101AD000660F771F881FDAF7880F9695879597F915
:101AE0000895990F0008550FAA0BE0E8FEEF1616AF
:101AF0001706E807F907C0F012161306E407F50702
:101B000098F0621B730B840B950B39F40A2661F075
:101B1000232B242B252B21F408950A2609F4A14018
:101B2000A6958FEF811D811D08950E94A80D0C942C
:101B3000190E0E940B0E38F00E94120E20F0952311
:101B400011F00C94020E0C94080E11240C944D0EFE
:101B50000E942A0E70F3959FC1F3950F50E0551F18
:101B6000629FF001729FBB27F00DB11D639FAA27F2
:101B7000F00DB11DAA1F649F6627B00DA11D661F41
:101B8000829F2227B00DA11D621F739FB00DA11D62
:101B9000621F839FA00D611D221F749F3327A00D1C
:101BA000611D231F849F600D211D822F762F6A2FB8
:101BB00011249F5750409AF0F1F088234AF0EE0F1D
:101BC000FF1FBB1F661F771F881F91505040A9F74A
:101BD0009E3F510580F00C94020E0C944D0E5F3F19
:101BE000E4F3983ED4F3869577956795B795F79586
:101BF000E7959F5FC1F7FE2B880F911D96958795FE
:101C000097F9089597F99F6780E870E060E008957C
:101C10009FEF80EC089500240A9416161706180604
:101C20000906089500240A941216130614060506E0
:101C30000895092E0394000C11F4882352F0BB0F71
:101C400040F4BF2B11F460FF04C06F5F7F4F8F4FD4
:101C50009F4F089557FD9058440F551F59F05F3F0F
:101C600071F04795880F97FB991F61F09F3F79F0BE
:101C700087950895121613061406551FF2CF469540
:101C8000F1DF08C0161617061806991FF1CF8695C2
:101C90007105610508940895E894BB2766277727A6
:101CA000CB0197F908950E94950EA59F900DB49FC2
:101CB000900DA49F800D911D112408952F923F92A5
:101CC0004F925F926F927F928F929F92AF92BF924C
:101CD000CF92DF92EF92FF920F931F93CF93DF93F8
:101CE000CDB7DEB7CA1BDB0B0FB6F894DEBF0FBE55
:101CF000CDBF09942A88398848885F846E847D84A2
:101D00008C849B84AA84B984C884DF80EE80FD80A3
:101D10000C811B81AA81B981CE0FD11D0FB6F89419
:101D2000DEBF0FBECDBFED010895A29FB001B39FEE
:101D3000C001A39F700D811D1124911DB29F700DD4
:101D4000811D1124911D08950E94B80E0C94190E46
:101D50000E94120E58F00E940B0E40F029F45F3FD3
:101D600029F00C94020E51110C944D0E0C94080E97
:101D70000E942A0E68F39923B1F3552391F3951B22
:101D8000550BBB27AA2762177307840738F09F5F9C
:101D90005F4F220F331F441FAA1FA9F335D00E2E09
:101DA0003AF0E0E832D091505040E695001CCAF776
:101DB0002BD0FE2F29D0660F771F881FBB1F261739
:101DC00037074807AB07B0E809F0BB0B802DBF0110
:101DD000FF2793585F4F3AF09E3F510578F00C94DF
:101DE000020E0C944D0E5F3FE4F3983ED4F38695BB
:101DF00077956795B795F7959F5FC9F7880F911D00
:101E00009695879597F90895E1E0660F771F881FEB
:101E1000BB1F621773078407BA0720F0621B730B9E
:101E2000840BBA0BEE1F88F7E09508950E94320EDE
:101E300088F09F5798F0B92F9927B751B0F0E1F08B
:101E4000660F771F881F991F1AF0BA95C9F714C03B
:101E5000B13091F00E944C0EB1E008950C944C0EFC
:101E6000672F782F8827B85F39F0B93FCCF3869574
:101E700077956795B395D9F73EF4909580957095D1
:101E800061957F4F8F4F9F4F08950E94710D08F409
:101E90008FEF0895991B79E004C0991F961708F0F9
:101EA000961B881F7A95C9F780950895A1E21A2E8E
:101EB000AA1BBB1BFD010DC0AA1FBB1FEE1FFF1FEE
:101EC000A217B307E407F50720F0A21BB30BE40B3E
:101ED000F50B661F771F881F991F1A9469F7609585
:101EE0007095809590959B01AC01BD01CF0108953F
:101EF000EE0FFF1F0590F491E02D09940F931F93AF
:101F0000CF93DF938230910510F482E090E0E0916E
:101F10005D02F0915E0230E020E0B0E0A0E030979A
:101F200099F42115310509F44AC0281B390B2430D6
:101F30003105D8F58A819B816115710589F1FB0115
:101F400093838283FE0111C04081518102811381FC
:101F500048175907E0F04817590799F4109761F0AE
:101F600012960C93129713961C933296CF01DF9121
:101F7000CF911F910F91089500935D0210935E021F
:101F8000F4CF2115310551F04217530738F0A9015C
:101F9000DB019A01BD01DF01F801C1CFEF01F9CFEB
:101FA00090935E0280935D02CDCFFE01E20FF31F9E
:101FB000819391932250310939832883D7CF20917F
:101FC0005B0230915C02232B41F420910601309199
:101FD000070130935C0220935B0220910401309151
:101FE00005012115310541F42DB73EB74091080197
:101FF00050910901241B350BE0915B02F0915C02CA
:10200000E217F307A0F42E1B3F0B2817390778F0CF
:10201000AC014E5F5F4F2417350748F04E0F5F1F2E
:1020200050935C0240935B02819391939FCFF0E0C9
:10203000E0E09CCFCF93DF930097E9F0FC0132976B
:1020400013821282A0915D02B0915E02ED0130E038
:1020500020E01097A1F420813181820F931F2091FD
:102060005B0230915C022817390709F061C0F093D8
:102070005C02E0935B02DF91CF910895EA01CE17F5
:10208000DF07E8F54A815B819E0141155105B1F7F3
:10209000E901FB83EA8349915991C40FD51FEC17DD
:1020A000FD0761F4808191810296840F951FE901FB
:1020B00099838883828193819B838A83F0E0E0E027
:1020C00012968D919C9113970097B9F52D913C91A3
:1020D0001197CD010296820F931F20915B023091E0
:1020E0005C022817390739F6309751F510925E02D5
:1020F00010925D02B0935C02A0935B02BCCFD383CD
:10210000C28340815181840F951FC817D90761F49C
:102110004E5F5F4F88819981480F591F51834083DB
:102120008A819B81938382832115310509F0B0CF89
:10213000F0935E02E0935D029ECFFD01DC01C0CF13
:1021400013821282D7CFB0E0A0E0E9EAF0E10C946C
:10215000600E8C01009751F4CB010E947E0F8C0120
:10216000C801CDB7DEB7E0E10C947C0EFC01E60FB0
:10217000F71F9C0122503109E217F30708F49DC0B4
:10218000D901CD91DC911197C617D70798F0C530CA
:10219000D10530F3CE0104978617970708F3C61BC5
:1021A000D70B2297C193D1936D937C93CF010E945B
:1021B0001A10D6CF5B01AC1ABD0A4C018C0E9D1EC5
:1021C000A0915D02B0915E02512C412CF12CE12CCA
:1021D000109731F580915B0290915C02881599050A
:1021E00009F05CC04616570608F058C080910401FB
:1021F00090910501009741F48DB79EB74091080179
:1022000050910901841B950BE817F90708F055C098
:10221000F0935C02E0935B02F90171836083A0CFCD
:102220008D919C91119712966C90129713967C90B9
:102230001397A815B90559F56C0142E0C40ED11CDD
:10224000CA14DB0420F1AC014A195B09DA011296C9
:10225000159780F06282738251834083D9016D9318
:102260007C93E114F10471F0D7011396FC93EE9383
:10227000129776CF22968C0F9D1FF9019183808350
:10228000F301EFCFF0935E02E0935D0269CF481651
:10229000590608F42C017D01D3019ACFCB010E948D
:1022A0007E0F7C01009749F0AE01B8010E946011D9
:1022B000C8010E941A10870153CF10E000E050CFF0
:1022C000FB01DC0102C001900D9241505040D8F753
:1022D0000895FB01DC0101900D920020E1F70895C3
:0422E000F894FFCFA0
:1022E400FFFFFFFF00005F02800000000000E80124
:1022F400080135013502A601440198012F2F22223D
:102304005C5C6208660C6E0A720D74090074727566
:10231400650066616C7365006E756C6C006973436F
:102324006C6F636B776973650072706D00557064D0
:102334006174696E67206D6F746F72205374617479
:102344006520776974682074696D65723A20000DA0
:102354000A0054696D657220696E74657276616CE9
:102364002069733A2000446972656374696F6E3A38
:1023740020002C2052504D3A200053656E642043B7
:0A2384006F6D6D616E64732021001F
:00000001FF
