:100000000C9475000C949D000C949D000C949D0024
:100010000C949D000C949D000C949D000C949D00EC
:100020000C949D000C949D000C949D000C949D00DC
:100030000C949D000C949D000C949D000C949D00CC
:100040000C94850B0C949D000C94530B0C942D0B6D
:100050000C949D000C949D000C949D000C949D00AC
:100060000C949D000C949D00000020410000C842AB
:1000700000401C4620BCBE4CCA1B0E5AAEC59D7427
:10008000CDCCCC3D0AD7233C17B7D13877CC2B3217
:100090009595E6241FB14F0A0000000800020100F8
:1000A0000003040700000000000000000000000042
:1000B000250028002B0000000000240027002A0053
:1000C00004040404040404040202020202020303FE
:1000D0000303030301020408102040800102040806
:1000E00010200102040810209C0C11241FBECFEF29
:1000F000D8E0DEBFCDBF22E0A0E6B1E001C01D9296
:10010000A331B207E1F711E0A0E0B1E0ECE1F1E2E8
:1001100002C005900D92A036B107D9F710E0C5E7EF
:10012000D0E004C02197FE010E94940EC437D1078D
:10013000C9F70E94CF0B0C948C100C94000090E037
:10014000FC01EC52FF4F249180549F4FFC0184919D
:10015000882399F090E0880F991FFC01EA54FF4F23
:10016000A591B491FC01E455FF4F859194918FB70F
:10017000F894EC91E22BEC938FBF089508950895C5
:10018000AF92BF92CF92DF92EF92FF920F931F93A5
:10019000CF93DF936C017B018B01040F151FEB01E3
:1001A0005E01AE18BF08C017D10759F06991D6019A
:1001B000ED91FC910190F081E02DC6010995892B0C
:1001C00079F7C501DF91CF911F910F91FF90EF90CB
:1001D000DF90CF90BF90AF900895FC01538D448D78
:1001E000252F30E0842F90E0821B930B541710F0E2
:1001F000CF96089501970895FC01918D828D9817EF
:1002000061F0A28DAE0FBF2FB11D5D968C91928DC6
:100210009F5F9F73928F90E008958FEF9FEF0895F7
:100220002FB7F89480916E0190916F01A0917001A9
:10023000B09171012FBF80937A0190937B01A093BD
:100240007C01B0937D0182E791E00E94FC0097FF62
:1002500026C02FB7F89480916E0190916F01A09104
:100260007001B09171012FBF40917A0150917B01D3
:1002700060917C0170917D01841B950BA60BB70BDF
:1002800040917601509177016091780170917901E8
:1002900084179507A607B707B0F28FEF9FEF089571
:1002A000FC01918D828D981731F0828DE80FF11D40
:1002B000858D90E008958FEF9FEF0895FC01918D5B
:1002C000228D892F90E0805C9F4F821B91098F7354
:1002D0009927089582E791E00E945E0121E0892B31
:1002E00009F420E0822F089580E090E0892B29F026
:1002F0000E946A0181110C9400000895FC01A48DF4
:10030000A80FB92FB11DA35ABF4F2C91848D90E037
:1003100001968F739927848FA689B7892C93A0891A
:10032000B1898C91837080648C93938D848D9813A4
:1003300006C00288F389E02D80818F7D8083089537
:10034000EF92FF920F931F93CF93DF93EC0181E025
:10035000888F9B8D8C8D98131AC0E889F9898081CC
:1003600085FF15C09FB7F894EE89FF896083E889FF
:10037000F98980818370806480839FBF81E090E0F1
:10038000DF91CF911F910F91FF90EF900895F62E7E
:100390000B8D10E00F5F1F4F0F731127E02E8C8D18
:1003A0008E110CC00FB607FCFACFE889F98980815D
:1003B00085FFF5CFCE010E947E01F1CFEB8DEC0FD2
:1003C000FD2FF11DE35AFF4FF0829FB7F8940B8F7A
:1003D000EA89FB8980818062CFCFCF93DF93EC01E4
:1003E000888D8823B9F0AA89BB89E889F9898C911D
:1003F00085FD03C0808186FD0DC00FB607FCF7CFD9
:100400008C9185FFF2CF808185FFEDCFCE010E94D8
:100410007E01E9CFDF91CF91089590E0FC01E8568D
:10042000FF4F2491FC01EC52FF4F3491FC01E0544A
:10043000FF4FE491EE23C9F0222339F0233001F17C
:10044000A8F4213019F1223029F1F0E0EE0FFF1F5E
:10045000E455FF4FA591B4918FB7F894EC916111D9
:1004600026C030953E233C938FBF08952730A9F0D6
:100470002830C9F0243049F7809180008F7D03C077
:10048000809180008F7780938000DFCF84B58F7755
:1004900084BDDBCF84B58F7DFBCF8091B0008F779B
:1004A0008093B000D2CF8091B0008F7DF9CF3E2BEA
:1004B000DACF3FB7F8948091610190916201A091E9
:1004C0006301B091640126B5A89B05C02F3F19F0C8
:1004D0000196A11DB11D3FBFBA2FA92F982F8827C4
:1004E000BC01CD01620F711D811D911D42E0660F9F
:1004F000771F881F991F4A95D1F70895982F803349
:100500006CF08A3324F08F3524F08B3724F481E0AB
:10051000089581341CF081E09B350CF080E0089553
:10052000FC018685811114C0A185B28583859485DF
:100530002FEF3FEFA817B90730F4CD01019692874E
:1005400081872C9130E037FD20E0258781E0868788
:10055000858508951F93CF93DF93EC01162F0E949A
:100560009002811306C01E8681E0DF91CF911F911A
:10057000089580E0FACF0F931F93CF93DF938C0100
:10058000EB018991882369F0C8010E9490028823B9
:1005900079F0FE013197908198130DC0F80116860D
:1005A000F0CF90E080E0DF91CF911F910F910895FF
:1005B00082E090E0F8CF83E090E0F5CFCF93DF9337
:1005C000EC01CE010E9490028B304CF489305CF437
:1005D000882359F081E0888790E080E00BC08D305F
:1005E00011F08032B9F71E86ECCF8885811105C0E5
:1005F00081E090E0DF91CF91089582E090E0FACF22
:100600008F929F92AF92BF92CF92DF92EF92FF9222
:10061000FC01DB0184818F77883009F44BC030F412
:10062000863009F45CC090E080E024C08A3059F143
:100630008C30C9F7C080D180E280F3806D917C91CD
:10064000072E000C880B990B0E94D00C4B015C010B
:10065000AC019B01C701B6010E94C90C87FD44C0D3
:10066000A5019401C701B6010E946D0E1816FCF495
:1006700082E090E0FF90EF90DF90CF90BF90AF903E
:100680009F908F90089540815181628173818D91F7
:100690009C91092E000CAA0BBB0B481759076A073F
:1006A0007B0714F184179507A607B7070CF381E0C1
:1006B00090E0E0CF40815181628173818D919C9166
:1006C000092E000CAA0BBB0B481759076A077B07BA
:1006D00058F084179507A607B70748F7C9CF408198
:1006E00050E070E060E0EACF84E090E0C3CFFC012E
:1006F00024813581A9014F5F5F4F8681978148171B
:10070000590748F48281938155834483FC01E20FA9
:10071000F31F608308950190F081E02D81E08087D0
:1007200008959F92AF92BF92CF92DF92EF92FF9285
:100730000F931F93CF93DF9300D000D01F92CDB7BC
:10074000DEB78C010E949002D82ED8011E961C9212
:10075000F12CE12C60EFC62EC8010E949002F80136
:100760001686D81609F4B4C0811113C082E090E057
:100770000F900F900F900F900F90DF91CF911F91DE
:100780000F91FF90EF90DF90CF90BF90AF909F9030
:1007900008958C3509F09AC0C8010E949002882300
:1007A00029F3E9E1F1E0853709F084C0D8011E960C
:1007B0001C9254E0952EB12CA12CC8010E949002ED
:1007C0008823A1F2813434F48053803130F083E007
:1007D00090E0CECF8F7D8753F8CF44E0AA0CBB1CAE
:1007E0004A95E1F7A82AF80116869A949110E5CF68
:1007F000C501985D8115944020F47501F3E0FF2256
:10080000ABCFC5019C5D81159440A8F483E0B8226C
:10081000B701762F6627770F770F6A297B2990E03B
:1008200080E00196603871058105910540F4C801AA
:100830000E94770391CFB50190E080E0F3CF198259
:10084000262F2F7320682A8326E096958795779523
:1008500067952A95D1F76032710580F4606C6B83DF
:100860005E01A4E0AA0EB11CD5016E915D01662364
:1008700009F472CFC8010E947703F6CF262F2F7399
:1008800020682B8386E0769567958A95E1F760313D
:10089000710538F4606E6C835E01B5E0AB0EB11C7F
:1008A000E3CF60686C83CD825E01E6E0AE0EB11CE2
:1008B000DBCF32969081992309F489CF8913F9CF40
:1008C0008181882309F483CFF8011686682FAFCF82
:1008D0000190F081E02D8085882319F084E090E07C
:1008E00047CF90E080E044CF4F925F926F927F922B
:1008F0008F929F92AF92BF92CF92DF92EF92FF9230
:100900000F931F93CF93DF93EC018B0188818B3280
:10091000C9F18D32C1F52196FF24F394888190EDC1
:10092000980F9A3018F08E3209F04DC160E070E0F7
:10093000CB01FE012191A0ED8A2E820E39E03815FF
:1009400020F16A3949E97407840749E1940738F5C9
:10095000AAE0B0E09B01AC010E94ED0D912CB12CFE
:10096000A12C240135014094509460947094461653
:1009700057066806790698F0680D791D8A1D9B1D3B
:10098000EF01D7CF2196F12CC9CF211108C0FF204C
:10099000F1F161307105810550E89507A0F0E12C77
:1009A000EAE08E2E912CA12CB12C61157105F0E896
:1009B0008F079105C0F1A50194010E94720ECA0132
:1009C000B901E394F2CFF801248120782A602483CE
:1009D0009B01AC0188279927DC01821B930BA40B98
:1009E000B50B80839183A283B3838F2DDF91CF9149
:1009F0001F910F91FF90EF90DF90CF90BF90AF903D
:100A00009F908F907F906F905F904F900895F80126
:100A10002481207828602483608371838283938378
:100A2000FF24F394E2CFFE01299130ED320F3A30EA
:100A300010F4E394F8CF2E32F1F4EF012196FE0189
:100A40002196208150EDD52ED20E29E02D1598F05B
:100A50006C3C3CEC73073CE08307910580F7AAE00F
:100A6000B0E09B01AC010E94ED0D6D0D711D811D6B
:100A7000911DEA94E4CF20812F7DD0E0C0E02534A1
:100A800009F05DC021812D32D9F53296CC24C39472
:100A9000DF01D0E0C0E02E2D0E2C000C330B4AE01D
:100AA000B42EFD01DD9040ED4D0D4A3008F042C0FE
:100AB000BC9EA001BD9E500D1124CD2DDD0CDD0B83
:100AC000E097C40FD51FAE01420F531F47325105A7
:100AD00044F3F8018481CC20D1F040E050E060E0A4
:100AE00070E8F11003C040E050E0BA0180788C60FB
:100AF000F80184834083518362837383FC2C75CF18
:100B00002B3219F03196C12CC3CF3296FCCF40E086
:100B100050E060E87FEFF11004C040E050E060E892
:100B20007FE780788C60F8018483408351836283FF
:100B3000738376CFCC2019F0D195C195D10920814E
:100B4000211141C0CE0DD11DE7FCDA950E94CE0CDB
:100B50001C161D0604F5E12CC0FF0CC024E0E29E2B
:100B6000F0011124E859FF4F259135914591549199
:100B70000E942F0DD595C795E394209769F7F11042
:100B80009058F801248120782C602483608371833D
:100B90008283938345CFD195C195D109E12C2097CC
:100BA00071F3C0FF0CC044E0E49EF0011124E05852
:100BB000FF4F25913591459154910E942F0DD59568
:100BC000C795E394ECCFF12C10CFCF92DF92EF9248
:100BD000FF92CF93DF9300D000D01F92CDB7DEB746
:100BE000FC0184818F77863091F030F4843040F5B9
:100BF00060E070E0CB010FC08A30C9F08C3069F141
:100C00008830B1F7608171818281938104C06081F5
:100C100070E090E080E00F900F900F900F900F9099
:100C2000DF91CF91FF90EF90DF90CF90089580817A
:100C30009181A281B381B7FDDBCFBC01CD01EBCFA8
:100C4000808191811D82BE016F5F7F4F0E9474047D
:100C5000CE0101960E94E505DECFC080D180E28002
:100C6000F38020E030E0A901C701B6010E946D0EBB
:100C700087FDBECF2FEF3FEF4FE75FE4C701B6011F
:100C80000E94C90C18160CF4B3CFC701B6010E941C
:100C90003E0EC1CFCF93DF93DC01EB01EC81FD81F0
:100CA0008A819B810896E817F90740F481E08887DC
:100CB000F0E0E0E0CF01DF91CF9108953897FD8318
:100CC000EC833097B9F31296CD91DC91139720976E
:100CD00091F0CF018C1B9D0B23E0959587952A956C
:100CE000E1F78D831396FC93EE931297158214828D
:100CF00017821682DFCF1196FC93EE93F3CFEF921B
:100D0000FF920F931F93CF93DF937C01DC01129628
:100D10002D913C911397ED91FC91AB01420F531F24
:100D2000EF01C60FD71FC217D307A0F48881811126
:100D30000BC0E901CF014C175D0751F00991DC01AF
:100D40001D91CD010117B9F381918111FDCFE8CF3C
:100D5000309751F4620F731FCB010196F701938313
:100D60008283DB011C92F901CF01DF91CF911F91AA
:100D70000F91FF90EF900895CF93DF936115710568
:100D8000A1F1DC018D919C91009789F1EC01EE813C
:100D9000FF81DB010D900020E9F71197A61BB70B2F
:100DA00030E020E0309749F0EF0109900020E9F7AA
:100DB0009E01215031092E1B3F0B2A173B0751F48E
:100DC000DB01260F371F2A173B0789F05D91419100
:100DD0005417C9F3FC012581222339F0F8E02F02D2
:100DE00090011124820F931FCFCF90E080E0DF911C
:100DF000CF9108959F92AF92BF92CF92DF92EF92E0
:100E0000FF920F931F93CF93DF93EC017B01D42EBE
:100E10000E94DE028C01892B09F052C0CE010E9493
:100E20009002863609F455C194F5873229F08B3546
:100E3000D1F1823209F056C1E881F9818281938132
:100E40009B838A838481958122813381821B930BCA
:100E50009F838E831D821C82892B11F481E0808701
:100E6000CE010E9491038C01892B51F5AC80BD808D
:100E7000B501888199810E947F06F701248120783D
:100E80002560248391838083B382A28219C0843732
:100E900009F408C18B3709F453C08E3609F022C11A
:100EA00065E371E008C1F701848180788064848300
:100EB0001182108213821282D1100FC005E010E05F
:100EC000C801DF91CF911F910F91FF90EF90DF90BC
:100ED000CF90BF90AF909F9008951E86CE010E9444
:100EE000DE02009709F02DC16DE5CE010E94AA0235
:100EF0008111E6CFDA946F857889C7010E944A068E
:100F0000009709F46EC04D2DBC01CE010E94FA0677
:100F1000009709F016C1CE010E94DE02009709F089
:100F200010C16DE5CE010E94AA028111C9CF6CE209
:100F3000CE010E94AA028111DECF03E010E0C0CFF3
:100F4000F701848180788062848311821082138209
:100F50001282DD2009F4B2CF1E86CE010E94DE028D
:100F6000009709F0EEC06DE7CE010E94AA02811140
:100F7000A7CFBB24B394DA94E881F981828193816D
:100F80009B838A838481958122813381821B930B89
:100F90009F838E831D821C82892B09F4B086CE012B
:100FA0000E949002873201F18232F1F0CE010E945C
:100FB0009002182F0E947E02882309F4BECF1E865D
:100FC000612FCE010E947703CE010E949002182F5C
:100FD0000E947E028111F3CFE881F9818085882308
:100FE00051F004E010E06CCFCE010E9491038C011F
:100FF000892B09F065CFCE010E94DE028C01892B7E
:1010000009F05ECF6AE3CE010E94AA02882309F4A8
:1010100094CFEA81FB818C819D81E80FF91F1082BA
:101020000C811D816A817B81C7010E94BC06BC01C5
:10103000892BA1F4B801888199810E947F068C01D7
:101040006F857889C7010E944A06FC01892B49F205
:1010500084818068848317830683BF014D2DCE0170
:101060000E94FA068C01892B09F02ACFCE010E943A
:10107000DE028C01892B09F023CF6DE7CE010E949F
:10108000AA0281111DCF6CE2CE010E94AA02882320
:1010900009F453CFCE010E94DE028C01892B09F4A2
:1010A0006BCF0ECFF701848180788660848381E0E6
:1010B00080836AE271E0CE01DF91CF911F910F91A1
:1010C000FF90EF90DF90CF90BF90AF909F900C94E7
:1010D000BB02F701848180788660848310826FE28E
:1010E00071E0E9CFCE010E9490025E01F1E1AF0E06
:1010F000B11CD12C9A2CCB2C803374F08A3374F42D
:101100009FE3D91699F01E86D394F50181935F0170
:10111000CE010E949002F0CF8B3291F393ED980FA5
:10112000923070F3982F9F7D953451F3CD0DD11DE2
:10113000198AB701892D9C2D0E9474048111C0CE9B
:10114000FCCE8C01BDCEFC01248125FF04C000979C
:1011500011F00C94BC0690E080E008950F931F936B
:10116000CF93DF93EC0188819981009759F02A8110
:101170003B812617370730F081E0DF91CF911F9137
:101180000F9108958B016F5F7F4F0E94BF0F0097F3
:1011900059F0998388831B830A832C813D81232BFB
:1011A00059F7FC011082E8CF80E0E7CF8F929F9241
:1011B000AF92BF92CF92DF92EF92FF920F931F9365
:1011C000CF93DF93CDB7DEB7C557D2400FB6F894B3
:1011D000DEBF0FBECDBF0E9459024B015C01C0595A
:1011E000DD4F19821882C057D240CE58DD4F198288
:1011F0001882C257D240CC58DD4F19821882C4578A
:10120000D24070E060E0CE0180599D4F0E94AE0850
:10121000C059DD4F28813981C057D240811167C044
:101220002115310519F0C9010E94360FC059DD4F53
:1012300019821882C057D240CC58DD4F19821882CB
:10124000C457D240CE58DD4F19821882C257D240BF
:1012500082E791E00E945E018E010F5F1F4F892B94
:1012600009F486C01A8219821C821B821E821D828A
:1012700070E060E0C8010E94AE0829813A818111C6
:1012800042C02115310519F0C9010E94360F1A829A
:1012900019821E821D821C821B820E94100197FDF2
:1012A0003AC08A309105B9F1C15FDD4F8883CF50D4
:1012B000D240C05FDD4F1882C051D240ED80FE8029
:1012C0008FEFE81AF80AB701C8010E94AE08882318
:1012D00021F329813A818D819E81BE01615F7D4F1D
:1012E000820F931F0E948510FE82ED82D6CFCC58CC
:1012F000DD4F19821882C457D24069E271E0C901FA
:101300000E948510A5CF1E821D8269E271E0C9018D
:101310000E948510C2CFC059DD4F88819981C05786
:10132000D240009709F4B2C069817A8161157105D4
:1013300009F4AAC0CE58DD4F48815981C257D24026
:101340002D813E814217530708F49EC00E948510EC
:101350008D819E81CC58DD4F99838883C457D240BC
:101360001E821D8289819A81009711F00E94360F9A
:10137000CE010F969A8389839C838B838FE092E0C2
:101380008C0F9D1F9E838D8398878F8319861E8661
:10139000C059DD4F28813981C057D240CC58DD4F2C
:1013A00088819981C457D240820F931FC859DD4F5D
:1013B00019830883C856D24048E0FE01E859FD4F22
:1013C000DE01A05ABD4F01900D924A95E1F748E029
:1013D000FE01E05AFD4FDE01A15FBD4F01900D926D
:1013E0004A95E1F7C95EDD4F1882C751D240C85E09
:1013F000DD4F39832883C851D240C65EDD4F9983C3
:101400008883CA51D240C35EDD4F1882CD51D2408D
:10141000C25EDD4F19830883CE51D2404AE0BE013F
:10142000665F7F4FCE01815F9D4F0E94FA06892B38
:1014300059F4C45EDD4F8881CC51D240882309F431
:1014400097C08E8583FF94C010E0C059DD4F88811E
:101450009981C057D240009711F00E94360F812F1A
:10146000CB58DD4F0FB6F894DEBF0FBECDBFDF9176
:10147000CF911F910F91FF90EF90DF90CF90BF9091
:10148000AF909F908F9008950E94360F89819A8126
:10149000C059DD4F99838883C057D2408B819C818E
:1014A000CE58DD4F99838883C257D2408D819E816B
:1014B000CC58DD4F99838883C457D2401A82198251
:1014C0001C821B824DCF9A3089F09C3009F06FC08E
:1014D00020E030E0A90160817181828193810E94C6
:1014E000C90C01C08081882351F061C08081918145
:1014F000A281B381892B8A2B8B2B09F058C060E025
:1015000057C090E080E075C066E471E0CE010A96B5
:101510000E94A30820E931E0C15FDD4F39832883B1
:10152000CF50D2400097E9F0BE01615F7D4F0E942D
:10153000000383709927892B09F460C066E471E089
:10154000CE010A960E94A308009771F00E94E5055B
:1015500060936A0170936B0180936C0190936D01AD
:1015600055C090E080E0E5CF60E070E0CB01F0CFC7
:101570006AE371E0CE010A960E94A308892BD9F094
:101580006AE371E0CE010A960E94A308FC01892B50
:1015900009F4B5CF94819F77983009F4A7CF08F06C
:1015A00092CF992309F4ABCF963009F49BCF61E039
:1015B00082E00E940D0266E471E0CE010A960E946C
:1015C000A308892B99F166E471E0CE010A960E9486
:1015D000A30820E83EE3C15FDD4F39832883CF5065
:1015E000D240009709F48DCFBE01615F7D4F0E940C
:1015F000000385709927892B09F086CF10926A0124
:1016000010926B0110926C0110926D0180916A0131
:1016100090916B01A0916C01B0916D018093660176
:1016200090936701A0936801B0936901C090000195
:10163000D12CF12CE12C0E945902C818D908EA08D3
:10164000FB08C60ED71EE81EF91EF694E794D79441
:10165000C794C092000111E0F8CE1F920F920FB60E
:101660000F9211242F933F934F935F936F937F9328
:101670008F939F93AF93BF93EF93FF9382E791E094
:101680000E947E01FF91EF91BF91AF919F918F9149
:101690007F916F915F914F913F912F910F900FBE6E
:1016A0000F901F9018951F920F920FB60F92112452
:1016B0002F938F939F93EF93FF93E0918201F0918B
:1016C00083018081E0918801F091890182FD1BC036
:1016D000908180918B018F5F8F7320918C01821795
:1016E00041F0E0918B01F0E0EE58FE4F958F809332
:1016F0008B01FF91EF919F918F912F910F900FBED2
:101700000F901F9018958081F4CF1F920F920FB603
:101710000F9211242F933F938F939F93AF93BF9377
:1017200080916E0190916F01A0917001B091710153
:101730003091600123E0230F2D3758F50196A11D4C
:10174000B11D2093600180936E0190936F01A0936F
:101750007001B09371018091610190916201A0913B
:101760006301B09164010196A11DB11D80936101D7
:1017700090936201A0936301B0936401BF91AF9114
:101780009F918F913F912F910F900FBE0F901F90BF
:10179000189526E8230F0296A11DB11DD2CF78948B
:1017A00084B5826084BD84B5816084BD85B5826066
:1017B00085BD85B5816085BD80916E008160809317
:1017C0006E00109281008091810082608093810080
:1017D0008091810081608093810080918000816090
:1017E000809380008091B10084608093B1008091EB
:1017F000B00081608093B00080917A008460809313
:101800007A0080917A00826080937A0080917A00D9
:10181000816080937A0080917A00806880937A005A
:101820001092C100E0918201F091830182E08083F7
:10183000E0917E01F0917F011082E0918001F091B2
:1018400081018FEC808310928A01E0918601F091F2
:10185000870186E08083E0918401F0918501808199
:1018600080618083E0918401F091850180818860AE
:101870008083E0918401F09185018081806880837C
:10188000E0918401F091850180818F7D808383E0E8
:101890000E949F0082E00E949F004FE050E06DE4B4
:1018A00071E082E791E00E94C00042E050E06DE507
:1018B00071E082E791E00E94C00001E0C0E0D0E06A
:1018C0000E94D60840916A0150916B0160916C01B1
:1018D00070916D01423051056105710520F1209133
:1018E0000001811101C020E08091660190916701A3
:1018F000A0916801B0916901821B9109A109B10908
:101900008230910538F0880F991F880F991F05972D
:101910000197F1F710916501612F83E00E940D029C
:10192000102710936501209759F20E946A018823BD
:1019300039F20E940000C4CFE2E7F1E01382128284
:1019400088EE93E0A0E0B0E084839583A683B7831C
:101950008BE091E09183808385EC90E0958784878C
:1019600084EC90E09787868780EC90E0918B808B69
:1019700081EC90E0938B828B82EC90E0958B848B52
:1019800086EC90E0978B868B118E128E138E148EC0
:1019900008950E940B0D08F481E00895E89409C0B1
:1019A00097FB3EF490958095709561957F4F8F4F92
:1019B0009F4F9923A9F0F92F96E9BB279395F695A8
:1019C000879577956795B795F111F8CFFAF4BB0F26
:1019D00011F460FF1BC06F5F7F4F8F4F9F4F16C08A
:1019E000882311F096E911C0772321F09EE8872F14
:1019F000762F05C0662371F096E8862F70E060E0D0
:101A00002AF09A95660F771F881FDAF7880F969548
:101A1000879597F90895990F0008550FAA0BE0E8EC
:101A2000FEEF16161706E807F907C0F012161306A0
:101A3000E407F50798F0621B730B840B950B39F4E0
:101A40000A2661F0232B242B252B21F408950A2646
:101A500009F4A140A6958FEF811D811D08950E9474
:101A6000420D0C94B30D0E94A50D38F00E94AC0DF0
:101A700020F0952311F00C949C0D0C94A20D1124D0
:101A80000C94E70D0E94C40D70F3959FC1F3950F60
:101A900050E0551F629FF001729FBB27F00DB11DF2
:101AA000639FAA27F00DB11DAA1F649F6627B00D82
:101AB000A11D661F829F2227B00DA11D621F739F6B
:101AC000B00DA11D621F839FA00D611D221F749F79
:101AD0003327A00D611D231F849F600D211D822FC0
:101AE000762F6A2F11249F5750409AF0F1F08823E7
:101AF0004AF0EE0FFF1FBB1F661F771F881F915014
:101B00005040A9F79E3F510580F00C949C0D0C9419
:101B1000E70D5F3FE4F3983ED4F38695779567959C
:101B2000B795F795E7959F5FC1F7FE2B880F911D3D
:101B30009695879597F9089597F99F6780E870E0E3
:101B400060E008959FEF80EC089500240A94161633
:101B5000170618060906089500240A94121613069B
:101B6000140605060895092E0394000C11F4882329
:101B700052F0BB0F40F4BF2B11F460FF04C06F5F45
:101B80007F4F8F4F9F4F089557FD9058440F551F1B
:101B900059F05F3F71F04795880F97FB991F61F0EF
:101BA0009F3F79F087950895121613061406551F66
:101BB000F2CF4695F1DF08C0161617061806991FD2
:101BC000F1CF86957105610508940895E894BB27C7
:101BD00066277727CB0197F908950E942F0EA59FBE
:101BE000900DB49F900DA49F800D911D1124089518
:101BF0002F923F924F925F926F927F928F929F921D
:101C0000AF92BF92CF92DF92EF92FF920F931F930A
:101C1000CF93DF93CDB7DEB7CA1BDB0B0FB6F894BB
:101C2000DEBF0FBECDBF09942A88398848885F84FB
:101C30006E847D848C849B84AA84B984C884DF806C
:101C4000EE80FD800C811B81AA81B981CE0FD11D50
:101C50000FB6F894DEBF0FBECDBFED010895A29F71
:101C6000B001B39FC001A39F700D811D1124911D70
:101C7000B29F700D811D1124911D08950E94CC0DFD
:101C800088F09F5798F0B92F9927B751B0F0E1F03D
:101C9000660F771F881F991F1AF0BA95C9F714C0ED
:101CA000B13091F00E94E60DB1E008950C94E60D7C
:101CB000672F782F8827B85F39F0B93FCCF3869526
:101CC00077956795B395D9F73EF490958095709583
:101CD00061957F4F8F4F9F4F08950E940B0D08F421
:101CE0008FEF0895A1E21A2EAA1BBB1BFD010DC0A8
:101CF000AA1FBB1FEE1FFF1FA217B307E407F507BC
:101D000020F0A21BB30BE40BF50B661F771F881F97
:101D1000991F1A9469F760957095809590959B012D
:101D2000AC01BD01CF010895EE0FFF1F0590F491A6
:101D3000E02D09940F931F93CF93DF938230910589
:101D400010F482E090E0E0911102F091120230E094
:101D500020E0B0E0A0E0309799F42115310509F4B6
:101D60004AC0281B390B24303105D8F58A819B8164
:101D70006115710589F1FB0193838283FE0111C016
:101D8000408151810281138148175907E0F04817BB
:101D9000590799F4109761F012960C9312971396C5
:101DA0001C933296CF01DF91CF911F910F9108952F
:101DB0000093110210931202F4CF2115310551F056
:101DC0004217530738F0A901DB019A01BD01DF0179
:101DD000F801C1CFEF01F9CF909312028093110265
:101DE000CDCFFE01E20FF31F819391932250310971
:101DF00039832883D7CF20910F0230911002232BF3
:101E000041F420910301309104013093100220939A
:101E10000F0220910101309102012115310541F499
:101E20002DB73EB74091050150910601241B350B9B
:101E3000E0910F02F0911002E217F307A0F42E1BBD
:101E40003F0B2817390778F0AC014E5F5F4F24171E
:101E5000350748F04E0F5F1F5093100240930F025A
:101E6000819391939FCFF0E0E0E09CCFCF93DF93FD
:101E70000097E9F0FC01329713821282A0911102BF
:101E8000B0911202ED0130E020E01097A1F4208122
:101E90003181820F931F20910F0230911002281779
:101EA000390709F061C0F0931002E0930F02DF914F
:101EB000CF910895EA01CE17DF07E8F54A815B81EB
:101EC0009E0141155105B1F7E901FB83EA83499170
:101ED0005991C40FD51FEC17FD0761F480819181E2
:101EE0000296840F951FE9019983888382819381EB
:101EF0009B838A83F0E0E0E012968D919C9113978A
:101F00000097B9F52D913C911197CD010296820F62
:101F1000931F20910F02309110022817390739F6CC
:101F2000309751F51092120210921102B0931002E4
:101F3000A0930F02BCCFD383C28340815181840F11
:101F4000951FC817D90761F44E5F5F4F888199814B
:101F5000480F591F518340838A819B8193838283D9
:101F60002115310509F0B0CFF0931202E093110270
:101F70009ECFFD01DC01C0CF13821282D7CFB0E02B
:101F8000A0E0E5ECFFE00C94FA0D8C01009751F411
:101F9000CB010E949A0E8C01C801CDB7DEB7E0E1FB
:101FA0000C94160EFC01E60FF71F9C01225031091C
:101FB000E217F30708F49DC0D901CD91DC91119788
:101FC000C617D70798F0C530D10530F3CE01049776
:101FD0008617970708F3C61BD70B2297C193D19397
:101FE0006D937C93CF010E94360FD6CF5B01AC1A64
:101FF000BD0A4C018C0E9D1EA0911102B0911202DF
:10200000512C412CF12CE12C109731F580910F02CD
:10201000909110028815990509F05CC04616570684
:1020200008F058C08091010190910201009741F49D
:102030008DB79EB74091050150910601841B950B09
:10204000E817F90708F055C0F0931002E0930F026B
:10205000F90171836083A0CF8D919C9111971296A5
:102060006C90129713967C901397A815B90559F5A3
:102070006C0142E0C40ED11CCA14DB0420F1AC0197
:102080004A195B09DA011296159780F06282738211
:1020900051834083D9016D937C93E114F10471F075
:1020A000D7011396FC93EE93129776CF22968C0F5E
:1020B0009D1FF90191838083F301EFCFF09312020A
:1020C000E093110269CF4816590608F42C017D01EE
:1020D000D3019ACFCB010E949A0E7C01009749F060
:1020E000AE01B8010E947C10C8010E94360F870122
:1020F00053CF10E000E050CFFB01DC0102C00190A3
:102100000D9241505040D8F70895FB01DC01019039
:0C2110000D920020E1F70895F894FFCF35
:10211C004500001302800000000000A001C000ED8B
:10212C0000ED015E01FC0050012F2F22225C5C624D
:10213C0008660C6E0A720D7409007472756500667F
:10214C00616C7365006E756C6C006973436C6F63C6
:10215C006B77697365007374657055730053656EA6
:10216C006420436F6D6D616E64732021000D0A0055
:00000001FF
